{"contracts/complaints.sol":{"Complaints":{"abi":[{"inputs":[],"name":"addComplaint","outputs":[],"stateMutability":"nonpayable","type":"function"},{"inputs":[{"internalType":"uint256","name":"","type":"uint256"}],"name":"complaints","outputs":[{"internalType":"uint256","name":"complaintNumber","type":"uint256"},{"internalType":"address","name":"complainant","type":"address"},{"internalType":"string","name":"complainantName","type":"string"},{"internalType":"string","name":"complainantAddress","type":"string"},{"internalType":"string","name":"incident","type":"string"},{"internalType":"string","name":"timeOfIncident","type":"string"}],"stateMutability":"view","type":"function"},{"inputs":[{"internalType":"uint256","name":"index","type":"uint256"}],"name":"getSingleComplaint","outputs":[{"components":[{"internalType":"uint256","name":"complaintNumber","type":"uint256"},{"internalType":"address","name":"complainant","type":"address"},{"internalType":"string","name":"complainantName","type":"string"},{"internalType":"string","name":"complainantAddress","type":"string"},{"internalType":"string","name":"incident","type":"string"},{"internalType":"string","name":"timeOfIncident","type":"string"}],"internalType":"struct Complaint","name":"","type":"tuple"}],"stateMutability":"view","type":"function"},{"inputs":[],"name":"lastComplaint","outputs":[{"components":[{"internalType":"uint256","name":"complaintNumber","type":"uint256"},{"internalType":"address","name":"complainant","type":"address"},{"internalType":"string","name":"complainantName","type":"string"},{"internalType":"string","name":"complainantAddress","type":"string"},{"internalType":"string","name":"incident","type":"string"},{"internalType":"string","name":"timeOfIncident","type":"string"}],"internalType":"struct Complaint","name":"","type":"tuple"}],"stateMutability":"view","type":"function"},{"inputs":[{"internalType":"uint256","name":"index","type":"uint256"}],"name":"removeComplaint","outputs":[],"stateMutability":"nonpayable","type":"function"},{"inputs":[],"name":"returnComplaints","outputs":[{"components":[{"internalType":"uint256","name":"complaintNumber","type":"uint256"},{"internalType":"address","name":"complainant","type":"address"},{"internalType":"string","name":"complainantName","type":"string"},{"internalType":"string","name":"complainantAddress","type":"string"},{"internalType":"string","name":"incident","type":"string"},{"internalType":"string","name":"timeOfIncident","type":"string"}],"internalType":"struct Complaint[]","name":"","type":"tuple[]"}],"stateMutability":"view","type":"function"},{"inputs":[{"internalType":"address","name":"_complainant","type":"address"}],"name":"setComplainant","outputs":[],"stateMutability":"nonpayable","type":"function"},{"inputs":[{"internalType":"string","name":"_name","type":"string"},{"internalType":"string","name":"_address","type":"string"},{"internalType":"string","name":"_incident","type":"string"},{"internalType":"string","name":"_time","type":"string"}],"name":"setComplainantDetails","outputs":[],"stateMutability":"nonpayable","type":"function"},{"inputs":[{"internalType":"uint256","name":"_number","type":"uint256"}],"name":"setComplaintNumber","outputs":[],"stateMutability":"nonpayable","type":"function"},{"inputs":[{"internalType":"uint256","name":"index","type":"uint256"},{"internalType":"string","name":"_name","type":"string"},{"internalType":"string","name":"_address","type":"string"},{"internalType":"string","name":"_incident","type":"string"},{"internalType":"string","name":"_time","type":"string"}],"name":"updateComplaint","outputs":[],"stateMutability":"nonpayable","type":"function"}],"evm":{"bytecode":{"linkReferences":{},"object":"60806040526001805534801561001457600080fd5b506120c2806100246000396000f3fe608060405234801561001057600080fd5b506004361061009e5760003560e01c80636db58c85116100665780636db58c85146101335780637e69e912146101515780638c33c7811461018657806395278dd9146101a2578063e949c634146101be5761009e565b80630616cf4f146100a357806311ca4d23146100ad5780631335430b146100dd5780635e65f604146100f9578063624a9d0b14610115575b600080fd5b6100ab6101da565b005b6100c760048036038101906100c291906113c6565b6102d0565b6040516100d49190611571565b60405180910390f35b6100f760048036038101906100f291906113c6565b6105c0565b005b610113600480360381019061010e91906115bf565b610866565b005b61011d6108ad565b60405161012a9190611571565b60405180910390f35b61013b610b6f565b604051610148919061174c565b60405180910390f35b61016b600480360381019061016691906113c6565b610e76565b60405161017d969594939291906117d6565b60405180910390f35b6101a0600480360381019061019b91906113c6565b611102565b005b6101bc60048036038101906101b79190611988565b61110f565b005b6101d860048036038101906101d39190611a5f565b6111d0565b005b600060029080600181540180825580915050600190039060005260206000209060060201600090919091909150600082015481600001556001820160009054906101000a900473ffffffffffffffffffffffffffffffffffffffff168160010160006101000a81548173ffffffffffffffffffffffffffffffffffffffff021916908373ffffffffffffffffffffffffffffffffffffffff1602179055506002820181600201908161028c9190611d6c565b50600382018160030190816102a19190611d6c565b50600482018160040190816102b69190611d6c565b50600582018160050190816102cb9190611d6c565b505050565b6102d86112d3565b60006001836102e79190611e83565b815481106102f8576102f7611eb7565b5b90600052602060002090600602016040518060c0016040529081600082015481526020016001820160009054906101000a900473ffffffffffffffffffffffffffffffffffffffff1673ffffffffffffffffffffffffffffffffffffffff1673ffffffffffffffffffffffffffffffffffffffff16815260200160028201805461038190611b79565b80601f01602080910402602001604051908101604052809291908181526020018280546103ad90611b79565b80156103fa5780601f106103cf576101008083540402835291602001916103fa565b820191906000526020600020905b8154815290600101906020018083116103dd57829003601f168201915b5050505050815260200160038201805461041390611b79565b80601f016020809104026020016040519081016040528092919081815260200182805461043f90611b79565b801561048c5780601f106104615761010080835404028352916020019161048c565b820191906000526020600020905b81548152906001019060200180831161046f57829003601f168201915b505050505081526020016004820180546104a590611b79565b80601f01602080910402602001604051908101604052809291908181526020018280546104d190611b79565b801561051e5780601f106104f35761010080835404028352916020019161051e565b820191906000526020600020905b81548152906001019060200180831161050157829003601f168201915b5050505050815260200160058201805461053790611b79565b80601f016020809104026020016040519081016040528092919081815260200182805461056390611b79565b80156105b05780601f10610585576101008083540402835291602001916105b0565b820191906000526020600020905b81548152906001019060200180831161059357829003601f168201915b5050505050815250509050919050565b600060016000805490506105d49190611e83565b90505b6001826105e49190611e83565b8111156106595760006001826105fa9190611e83565b8154811061060b5761060a611eb7565b5b9060005260206000209060060201600001546000828154811061063157610630611eb7565b5b906000526020600020906006020160000181905550808061065190611ee6565b9150506105d7565b5060006001826106699190611e83565b90505b600160008054905061067e9190611e83565b8110156107b05760006001826106949190611f0f565b815481106106a5576106a4611eb7565b5b9060005260206000209060060201600082815481106106c7576106c6611eb7565b5b9060005260206000209060060201600082015481600001556001820160009054906101000a900473ffffffffffffffffffffffffffffffffffffffff168160010160006101000a81548173ffffffffffffffffffffffffffffffffffffffff021916908373ffffffffffffffffffffffffffffffffffffffff1602179055506002820181600201908161075a9190611d6c565b506003820181600301908161076f9190611d6c565b50600482018160040190816107849190611d6c565b50600582018160050190816107999190611d6c565b5090505080806107a890611f43565b91505061066c565b50600160008154809291906107c490611ee6565b919050555060008054806107db576107da611f8b565b5b60019003818190600052602060002090600602016000808201600090556001820160006101000a81549073ffffffffffffffffffffffffffffffffffffffff021916905560028201600061082f919061131f565b60038201600061083f919061131f565b60048201600061084f919061131f565b60058201600061085f919061131f565b5050905550565b80600260010160006101000a81548173ffffffffffffffffffffffffffffffffffffffff021916908373ffffffffffffffffffffffffffffffffffffffff16021790555050565b6108b56112d3565b60026040518060c0016040529081600082015481526020016001820160009054906101000a900473ffffffffffffffffffffffffffffffffffffffff1673ffffffffffffffffffffffffffffffffffffffff1673ffffffffffffffffffffffffffffffffffffffff16815260200160028201805461093290611b79565b80601f016020809104026020016040519081016040528092919081815260200182805461095e90611b79565b80156109ab5780601f10610980576101008083540402835291602001916109ab565b820191906000526020600020905b81548152906001019060200180831161098e57829003601f168201915b505050505081526020016003820180546109c490611b79565b80601f01602080910402602001604051908101604052809291908181526020018280546109f090611b79565b8015610a3d5780601f10610a1257610100808354040283529160200191610a3d565b820191906000526020600020905b815481529060010190602001808311610a2057829003601f168201915b50505050508152602001600482018054610a5690611b79565b80601f0160208091040260200160405190810160405280929190818152602001828054610a8290611b79565b8015610acf5780601f10610aa457610100808354040283529160200191610acf565b820191906000526020600020905b815481529060010190602001808311610ab257829003601f168201915b50505050508152602001600582018054610ae890611b79565b80601f0160208091040260200160405190810160405280929190818152602001828054610b1490611b79565b8015610b615780601f10610b3657610100808354040283529160200191610b61565b820191906000526020600020905b815481529060010190602001808311610b4457829003601f168201915b505050505081525050905090565b60606000805480602002602001604051908101604052809291908181526020016000905b82821015610e6d57838290600052602060002090600602016040518060c0016040529081600082015481526020016001820160009054906101000a900473ffffffffffffffffffffffffffffffffffffffff1673ffffffffffffffffffffffffffffffffffffffff1673ffffffffffffffffffffffffffffffffffffffff168152602001600282018054610c2690611b79565b80601f0160208091040260200160405190810160405280929190818152602001828054610c5290611b79565b8015610c9f5780601f10610c7457610100808354040283529160200191610c9f565b820191906000526020600020905b815481529060010190602001808311610c8257829003601f168201915b50505050508152602001600382018054610cb890611b79565b80601f0160208091040260200160405190810160405280929190818152602001828054610ce490611b79565b8015610d315780601f10610d0657610100808354040283529160200191610d31565b820191906000526020600020905b815481529060010190602001808311610d1457829003601f168201915b50505050508152602001600482018054610d4a90611b79565b80601f0160208091040260200160405190810160405280929190818152602001828054610d7690611b79565b8015610dc35780601f10610d9857610100808354040283529160200191610dc3565b820191906000526020600020905b815481529060010190602001808311610da657829003601f168201915b50505050508152602001600582018054610ddc90611b79565b80601f0160208091040260200160405190810160405280929190818152602001828054610e0890611b79565b8015610e555780601f10610e2a57610100808354040283529160200191610e55565b820191906000526020600020905b815481529060010190602001808311610e3857829003601f168201915b50505050508152505081526020019060010190610b93565b50505050905090565b60008181548110610e8657600080fd5b90600052602060002090600602016000915090508060000154908060010160009054906101000a900473ffffffffffffffffffffffffffffffffffffffff1690806002018054610ed590611b79565b80601f0160208091040260200160405190810160405280929190818152602001828054610f0190611b79565b8015610f4e5780601f10610f2357610100808354040283529160200191610f4e565b820191906000526020600020905b815481529060010190602001808311610f3157829003601f168201915b505050505090806003018054610f6390611b79565b80601f0160208091040260200160405190810160405280929190818152602001828054610f8f90611b79565b8015610fdc5780601f10610fb157610100808354040283529160200191610fdc565b820191906000526020600020905b815481529060010190602001808311610fbf57829003601f168201915b505050505090806004018054610ff190611b79565b80601f016020809104026020016040519081016040528092919081815260200182805461101d90611b79565b801561106a5780601f1061103f5761010080835404028352916020019161106a565b820191906000526020600020905b81548152906001019060200180831161104d57829003601f168201915b50505050509080600501805461107f90611b79565b80601f01602080910402602001604051908101604052809291908181526020018280546110ab90611b79565b80156110f85780601f106110cd576101008083540402835291602001916110f8565b820191906000526020600020905b8154815290600101906020018083116110db57829003601f168201915b5050505050905086565b8060026000018190555050565b6001546002600001819055506001600081548092919061112e90611f43565b919050555033600260010160006101000a81548173ffffffffffffffffffffffffffffffffffffffff021916908373ffffffffffffffffffffffffffffffffffffffff160217905550836002800190816111889190611fba565b50826002600301908161119b9190611fba565b5081600260040190816111ae9190611fba565b5080600260050190816111c19190611fba565b506111ca6101da565b50505050565b8360006001876111e09190611e83565b815481106111f1576111f0611eb7565b5b9060005260206000209060060201600201908161120e9190611fba565b5082600060018761121f9190611e83565b815481106112305761122f611eb7565b5b9060005260206000209060060201600301908161124d9190611fba565b5081600060018761125e9190611e83565b8154811061126f5761126e611eb7565b5b9060005260206000209060060201600401908161128c9190611fba565b5080600060018761129d9190611e83565b815481106112ae576112ad611eb7565b5b906000526020600020906006020160050190816112cb9190611fba565b505050505050565b6040518060c0016040528060008152602001600073ffffffffffffffffffffffffffffffffffffffff168152602001606081526020016060815260200160608152602001606081525090565b50805461132b90611b79565b6000825580601f1061133d575061135c565b601f01602090049060005260206000209081019061135b919061135f565b5b50565b5b80821115611378576000816000905550600101611360565b5090565b6000604051905090565b600080fd5b600080fd5b6000819050919050565b6113a381611390565b81146113ae57600080fd5b50565b6000813590506113c08161139a565b92915050565b6000602082840312156113dc576113db611386565b5b60006113ea848285016113b1565b91505092915050565b6113fc81611390565b82525050565b600073ffffffffffffffffffffffffffffffffffffffff82169050919050565b600061142d82611402565b9050919050565b61143d81611422565b82525050565b600081519050919050565b600082825260208201905092915050565b60005b8381101561147d578082015181840152602081019050611462565b60008484015250505050565b6000601f19601f8301169050919050565b60006114a582611443565b6114af818561144e565b93506114bf81856020860161145f565b6114c881611489565b840191505092915050565b600060c0830160008301516114eb60008601826113f3565b5060208301516114fe6020860182611434565b5060408301518482036040860152611516828261149a565b91505060608301518482036060860152611530828261149a565b9150506080830151848203608086015261154a828261149a565b91505060a083015184820360a0860152611564828261149a565b9150508091505092915050565b6000602082019050818103600083015261158b81846114d3565b905092915050565b61159c81611422565b81146115a757600080fd5b50565b6000813590506115b981611593565b92915050565b6000602082840312156115d5576115d4611386565b5b60006115e3848285016115aa565b91505092915050565b600081519050919050565b600082825260208201905092915050565b6000819050602082019050919050565b600060c08301600083015161163060008601826113f3565b5060208301516116436020860182611434565b506040830151848203604086015261165b828261149a565b91505060608301518482036060860152611675828261149a565b9150506080830151848203608086015261168f828261149a565b91505060a083015184820360a08601526116a9828261149a565b9150508091505092915050565b60006116c28383611618565b905092915050565b6000602082019050919050565b60006116e2826115ec565b6116ec81856115f7565b9350836020820285016116fe85611608565b8060005b8581101561173a578484038952815161171b85826116b6565b9450611726836116ca565b925060208a01995050600181019050611702565b50829750879550505050505092915050565b6000602082019050818103600083015261176681846116d7565b905092915050565b61177781611390565b82525050565b61178681611422565b82525050565b600082825260208201905092915050565b60006117a882611443565b6117b2818561178c565b93506117c281856020860161145f565b6117cb81611489565b840191505092915050565b600060c0820190506117eb600083018961176e565b6117f8602083018861177d565b818103604083015261180a818761179d565b9050818103606083015261181e818661179d565b90508181036080830152611832818561179d565b905081810360a0830152611846818461179d565b9050979650505050505050565b600080fd5b600080fd5b7f4e487b7100000000000000000000000000000000000000000000000000000000600052604160045260246000fd5b61189582611489565b810181811067ffffffffffffffff821117156118b4576118b361185d565b5b80604052505050565b60006118c761137c565b90506118d3828261188c565b919050565b600067ffffffffffffffff8211156118f3576118f261185d565b5b6118fc82611489565b9050602081019050919050565b82818337600083830152505050565b600061192b611926846118d8565b6118bd565b90508281526020810184848401111561194757611946611858565b5b611952848285611909565b509392505050565b600082601f83011261196f5761196e611853565b5b813561197f848260208601611918565b91505092915050565b600080600080608085870312156119a2576119a1611386565b5b600085013567ffffffffffffffff8111156119c0576119bf61138b565b5b6119cc8782880161195a565b945050602085013567ffffffffffffffff8111156119ed576119ec61138b565b5b6119f98782880161195a565b935050604085013567ffffffffffffffff811115611a1a57611a1961138b565b5b611a268782880161195a565b925050606085013567ffffffffffffffff811115611a4757611a4661138b565b5b611a538782880161195a565b91505092959194509250565b600080600080600060a08688031215611a7b57611a7a611386565b5b6000611a89888289016113b1565b955050602086013567ffffffffffffffff811115611aaa57611aa961138b565b5b611ab68882890161195a565b945050604086013567ffffffffffffffff811115611ad757611ad661138b565b5b611ae38882890161195a565b935050606086013567ffffffffffffffff811115611b0457611b0361138b565b5b611b108882890161195a565b925050608086013567ffffffffffffffff811115611b3157611b3061138b565b5b611b3d8882890161195a565b9150509295509295909350565b7f4e487b7100000000000000000000000000000000000000000000000000000000600052602260045260246000fd5b60006002820490506001821680611b9157607f821691505b602082108103611ba457611ba3611b4a565b5b50919050565b600081549050611bb981611b79565b9050919050565b60008190508160005260206000209050919050565b60006020601f8301049050919050565b600082821b905092915050565b600060088302611c227fffffffffffffffffffffffffffffffffffffffffffffffffffffffffffffffff82611be5565b611c2c8683611be5565b95508019841693508086168417925050509392505050565b6000819050919050565b6000611c69611c64611c5f84611390565b611c44565b611390565b9050919050565b6000819050919050565b611c8383611c4e565b611c97611c8f82611c70565b848454611bf2565b825550505050565b600090565b611cac611c9f565b611cb7818484611c7a565b505050565b5b81811015611cdb57611cd0600082611ca4565b600181019050611cbd565b5050565b601f821115611d2057611cf181611bc0565b611cfa84611bd5565b81016020851015611d09578190505b611d1d611d1585611bd5565b830182611cbc565b50505b505050565b600082821c905092915050565b6000611d4360001984600802611d25565b1980831691505092915050565b6000611d5c8383611d32565b9150826002028217905092915050565b818103611d7a575050611e52565b611d8382611baa565b67ffffffffffffffff811115611d9c57611d9b61185d565b5b611da68254611b79565b611db1828285611cdf565b6000601f831160018114611de05760008415611dce578287015490505b611dd88582611d50565b865550611e4b565b601f198416611dee87611bc0565b9650611df986611bc0565b60005b82811015611e2157848901548255600182019150600185019450602081019050611dfc565b86831015611e3e5784890154611e3a601f891682611d32565b8355505b6001600288020188555050505b5050505050505b565b7f4e487b7100000000000000000000000000000000000000000000000000000000600052601160045260246000fd5b6000611e8e82611390565b9150611e9983611390565b9250828203905081811115611eb157611eb0611e54565b5b92915050565b7f4e487b7100000000000000000000000000000000000000000000000000000000600052603260045260246000fd5b6000611ef182611390565b915060008203611f0457611f03611e54565b5b600182039050919050565b6000611f1a82611390565b9150611f2583611390565b9250828201905080821115611f3d57611f3c611e54565b5b92915050565b6000611f4e82611390565b91507fffffffffffffffffffffffffffffffffffffffffffffffffffffffffffffffff8203611f8057611f7f611e54565b5b600182019050919050565b7f4e487b7100000000000000000000000000000000000000000000000000000000600052603160045260246000fd5b611fc382611443565b67ffffffffffffffff811115611fdc57611fdb61185d565b5b611fe68254611b79565b611ff1828285611cdf565b600060209050601f8311600181146120245760008415612012578287015190505b61201c8582611d50565b865550612084565b601f19841661203286611bc0565b60005b8281101561205a57848901518255600182019150602085019450602081019050612035565b868310156120775784890151612073601f891682611d32565b8355505b6001600288020188555050505b50505050505056fea2646970667358221220d553d1824807334b0a5e135ba0876b44cb613ee5284efab581f3d8de9897ef0364736f6c63430008110033","opcodes":"PUSH1 0x80 PUSH1 0x40 MSTORE PUSH1 0x1 DUP1 SSTORE CALLVALUE DUP1 ISZERO PUSH2 0x14 JUMPI PUSH1 0x0 DUP1 REVERT JUMPDEST POP PUSH2 0x20C2 DUP1 PUSH2 0x24 PUSH1 0x0 CODECOPY PUSH1 0x0 RETURN INVALID PUSH1 0x80 PUSH1 0x40 MSTORE CALLVALUE DUP1 ISZERO PUSH2 0x10 JUMPI PUSH1 0x0 DUP1 REVERT JUMPDEST POP PUSH1 0x4 CALLDATASIZE LT PUSH2 0x9E JUMPI PUSH1 0x0 CALLDATALOAD PUSH1 0xE0 SHR DUP1 PUSH4 0x6DB58C85 GT PUSH2 0x66 JUMPI DUP1 PUSH4 0x6DB58C85 EQ PUSH2 0x133 JUMPI DUP1 PUSH4 0x7E69E912 EQ PUSH2 0x151 JUMPI DUP1 PUSH4 0x8C33C781 EQ PUSH2 0x186 JUMPI DUP1 PUSH4 0x95278DD9 EQ PUSH2 0x1A2 JUMPI DUP1 PUSH4 0xE949C634 EQ PUSH2 0x1BE JUMPI PUSH2 0x9E JUMP JUMPDEST DUP1 PUSH4 0x616CF4F EQ PUSH2 0xA3 JUMPI DUP1 PUSH4 0x11CA4D23 EQ PUSH2 0xAD JUMPI DUP1 PUSH4 0x1335430B EQ PUSH2 0xDD JUMPI DUP1 PUSH4 0x5E65F604 EQ PUSH2 0xF9 JUMPI DUP1 PUSH4 0x624A9D0B EQ PUSH2 0x115 JUMPI JUMPDEST PUSH1 0x0 DUP1 REVERT JUMPDEST PUSH2 0xAB PUSH2 0x1DA JUMP JUMPDEST STOP JUMPDEST PUSH2 0xC7 PUSH1 0x4 DUP1 CALLDATASIZE SUB DUP2 ADD SWAP1 PUSH2 0xC2 SWAP2 SWAP1 PUSH2 0x13C6 JUMP JUMPDEST PUSH2 0x2D0 JUMP JUMPDEST PUSH1 0x40 MLOAD PUSH2 0xD4 SWAP2 SWAP1 PUSH2 0x1571 JUMP JUMPDEST PUSH1 0x40 MLOAD DUP1 SWAP2 SUB SWAP1 RETURN JUMPDEST PUSH2 0xF7 PUSH1 0x4 DUP1 CALLDATASIZE SUB DUP2 ADD SWAP1 PUSH2 0xF2 SWAP2 SWAP1 PUSH2 0x13C6 JUMP JUMPDEST PUSH2 0x5C0 JUMP JUMPDEST STOP JUMPDEST PUSH2 0x113 PUSH1 0x4 DUP1 CALLDATASIZE SUB DUP2 ADD SWAP1 PUSH2 0x10E SWAP2 SWAP1 PUSH2 0x15BF JUMP JUMPDEST PUSH2 0x866 JUMP JUMPDEST STOP JUMPDEST PUSH2 0x11D PUSH2 0x8AD JUMP JUMPDEST PUSH1 0x40 MLOAD PUSH2 0x12A SWAP2 SWAP1 PUSH2 0x1571 JUMP JUMPDEST PUSH1 0x40 MLOAD DUP1 SWAP2 SUB SWAP1 RETURN JUMPDEST PUSH2 0x13B PUSH2 0xB6F JUMP JUMPDEST PUSH1 0x40 MLOAD PUSH2 0x148 SWAP2 SWAP1 PUSH2 0x174C JUMP JUMPDEST PUSH1 0x40 MLOAD DUP1 SWAP2 SUB SWAP1 RETURN JUMPDEST PUSH2 0x16B PUSH1 0x4 DUP1 CALLDATASIZE SUB DUP2 ADD SWAP1 PUSH2 0x166 SWAP2 SWAP1 PUSH2 0x13C6 JUMP JUMPDEST PUSH2 0xE76 JUMP JUMPDEST PUSH1 0x40 MLOAD PUSH2 0x17D SWAP7 SWAP6 SWAP5 SWAP4 SWAP3 SWAP2 SWAP1 PUSH2 0x17D6 JUMP JUMPDEST PUSH1 0x40 MLOAD DUP1 SWAP2 SUB SWAP1 RETURN JUMPDEST PUSH2 0x1A0 PUSH1 0x4 DUP1 CALLDATASIZE SUB DUP2 ADD SWAP1 PUSH2 0x19B SWAP2 SWAP1 PUSH2 0x13C6 JUMP JUMPDEST PUSH2 0x1102 JUMP JUMPDEST STOP JUMPDEST PUSH2 0x1BC PUSH1 0x4 DUP1 CALLDATASIZE SUB DUP2 ADD SWAP1 PUSH2 0x1B7 SWAP2 SWAP1 PUSH2 0x1988 JUMP JUMPDEST PUSH2 0x110F JUMP JUMPDEST STOP JUMPDEST PUSH2 0x1D8 PUSH1 0x4 DUP1 CALLDATASIZE SUB DUP2 ADD SWAP1 PUSH2 0x1D3 SWAP2 SWAP1 PUSH2 0x1A5F JUMP JUMPDEST PUSH2 0x11D0 JUMP JUMPDEST STOP JUMPDEST PUSH1 0x0 PUSH1 0x2 SWAP1 DUP1 PUSH1 0x1 DUP2 SLOAD ADD DUP1 DUP3 SSTORE DUP1 SWAP2 POP POP PUSH1 0x1 SWAP1 SUB SWAP1 PUSH1 0x0 MSTORE PUSH1 0x20 PUSH1 0x0 KECCAK256 SWAP1 PUSH1 0x6 MUL ADD PUSH1 0x0 SWAP1 SWAP2 SWAP1 SWAP2 SWAP1 SWAP2 POP PUSH1 0x0 DUP3 ADD SLOAD DUP2 PUSH1 0x0 ADD SSTORE PUSH1 0x1 DUP3 ADD PUSH1 0x0 SWAP1 SLOAD SWAP1 PUSH2 0x100 EXP SWAP1 DIV PUSH20 0xFFFFFFFFFFFFFFFFFFFFFFFFFFFFFFFFFFFFFFFF AND DUP2 PUSH1 0x1 ADD PUSH1 0x0 PUSH2 0x100 EXP DUP2 SLOAD DUP2 PUSH20 0xFFFFFFFFFFFFFFFFFFFFFFFFFFFFFFFFFFFFFFFF MUL NOT AND SWAP1 DUP4 PUSH20 0xFFFFFFFFFFFFFFFFFFFFFFFFFFFFFFFFFFFFFFFF AND MUL OR SWAP1 SSTORE POP PUSH1 0x2 DUP3 ADD DUP2 PUSH1 0x2 ADD SWAP1 DUP2 PUSH2 0x28C SWAP2 SWAP1 PUSH2 0x1D6C JUMP JUMPDEST POP PUSH1 0x3 DUP3 ADD DUP2 PUSH1 0x3 ADD SWAP1 DUP2 PUSH2 0x2A1 SWAP2 SWAP1 PUSH2 0x1D6C JUMP JUMPDEST POP PUSH1 0x4 DUP3 ADD DUP2 PUSH1 0x4 ADD SWAP1 DUP2 PUSH2 0x2B6 SWAP2 SWAP1 PUSH2 0x1D6C JUMP JUMPDEST POP PUSH1 0x5 DUP3 ADD DUP2 PUSH1 0x5 ADD SWAP1 DUP2 PUSH2 0x2CB SWAP2 SWAP1 PUSH2 0x1D6C JUMP JUMPDEST POP POP POP JUMP JUMPDEST PUSH2 0x2D8 PUSH2 0x12D3 JUMP JUMPDEST PUSH1 0x0 PUSH1 0x1 DUP4 PUSH2 0x2E7 SWAP2 SWAP1 PUSH2 0x1E83 JUMP JUMPDEST DUP2 SLOAD DUP2 LT PUSH2 0x2F8 JUMPI PUSH2 0x2F7 PUSH2 0x1EB7 JUMP JUMPDEST JUMPDEST SWAP1 PUSH1 0x0 MSTORE PUSH1 0x20 PUSH1 0x0 KECCAK256 SWAP1 PUSH1 0x6 MUL ADD PUSH1 0x40 MLOAD DUP1 PUSH1 0xC0 ADD PUSH1 0x40 MSTORE SWAP1 DUP2 PUSH1 0x0 DUP3 ADD SLOAD DUP2 MSTORE PUSH1 0x20 ADD PUSH1 0x1 DUP3 ADD PUSH1 0x0 SWAP1 SLOAD SWAP1 PUSH2 0x100 EXP SWAP1 DIV PUSH20 0xFFFFFFFFFFFFFFFFFFFFFFFFFFFFFFFFFFFFFFFF AND PUSH20 0xFFFFFFFFFFFFFFFFFFFFFFFFFFFFFFFFFFFFFFFF AND PUSH20 0xFFFFFFFFFFFFFFFFFFFFFFFFFFFFFFFFFFFFFFFF AND DUP2 MSTORE PUSH1 0x20 ADD PUSH1 0x2 DUP3 ADD DUP1 SLOAD PUSH2 0x381 SWAP1 PUSH2 0x1B79 JUMP JUMPDEST DUP1 PUSH1 0x1F ADD PUSH1 0x20 DUP1 SWAP2 DIV MUL PUSH1 0x20 ADD PUSH1 0x40 MLOAD SWAP1 DUP2 ADD PUSH1 0x40 MSTORE DUP1 SWAP3 SWAP2 SWAP1 DUP2 DUP2 MSTORE PUSH1 0x20 ADD DUP3 DUP1 SLOAD PUSH2 0x3AD SWAP1 PUSH2 0x1B79 JUMP JUMPDEST DUP1 ISZERO PUSH2 0x3FA JUMPI DUP1 PUSH1 0x1F LT PUSH2 0x3CF JUMPI PUSH2 0x100 DUP1 DUP4 SLOAD DIV MUL DUP4 MSTORE SWAP2 PUSH1 0x20 ADD SWAP2 PUSH2 0x3FA JUMP JUMPDEST DUP3 ADD SWAP2 SWAP1 PUSH1 0x0 MSTORE PUSH1 0x20 PUSH1 0x0 KECCAK256 SWAP1 JUMPDEST DUP2 SLOAD DUP2 MSTORE SWAP1 PUSH1 0x1 ADD SWAP1 PUSH1 0x20 ADD DUP1 DUP4 GT PUSH2 0x3DD JUMPI DUP3 SWAP1 SUB PUSH1 0x1F AND DUP3 ADD SWAP2 JUMPDEST POP POP POP POP POP DUP2 MSTORE PUSH1 0x20 ADD PUSH1 0x3 DUP3 ADD DUP1 SLOAD PUSH2 0x413 SWAP1 PUSH2 0x1B79 JUMP JUMPDEST DUP1 PUSH1 0x1F ADD PUSH1 0x20 DUP1 SWAP2 DIV MUL PUSH1 0x20 ADD PUSH1 0x40 MLOAD SWAP1 DUP2 ADD PUSH1 0x40 MSTORE DUP1 SWAP3 SWAP2 SWAP1 DUP2 DUP2 MSTORE PUSH1 0x20 ADD DUP3 DUP1 SLOAD PUSH2 0x43F SWAP1 PUSH2 0x1B79 JUMP JUMPDEST DUP1 ISZERO PUSH2 0x48C JUMPI DUP1 PUSH1 0x1F LT PUSH2 0x461 JUMPI PUSH2 0x100 DUP1 DUP4 SLOAD DIV MUL DUP4 MSTORE SWAP2 PUSH1 0x20 ADD SWAP2 PUSH2 0x48C JUMP JUMPDEST DUP3 ADD SWAP2 SWAP1 PUSH1 0x0 MSTORE PUSH1 0x20 PUSH1 0x0 KECCAK256 SWAP1 JUMPDEST DUP2 SLOAD DUP2 MSTORE SWAP1 PUSH1 0x1 ADD SWAP1 PUSH1 0x20 ADD DUP1 DUP4 GT PUSH2 0x46F JUMPI DUP3 SWAP1 SUB PUSH1 0x1F AND DUP3 ADD SWAP2 JUMPDEST POP POP POP POP POP DUP2 MSTORE PUSH1 0x20 ADD PUSH1 0x4 DUP3 ADD DUP1 SLOAD PUSH2 0x4A5 SWAP1 PUSH2 0x1B79 JUMP JUMPDEST DUP1 PUSH1 0x1F ADD PUSH1 0x20 DUP1 SWAP2 DIV MUL PUSH1 0x20 ADD PUSH1 0x40 MLOAD SWAP1 DUP2 ADD PUSH1 0x40 MSTORE DUP1 SWAP3 SWAP2 SWAP1 DUP2 DUP2 MSTORE PUSH1 0x20 ADD DUP3 DUP1 SLOAD PUSH2 0x4D1 SWAP1 PUSH2 0x1B79 JUMP JUMPDEST DUP1 ISZERO PUSH2 0x51E JUMPI DUP1 PUSH1 0x1F LT PUSH2 0x4F3 JUMPI PUSH2 0x100 DUP1 DUP4 SLOAD DIV MUL DUP4 MSTORE SWAP2 PUSH1 0x20 ADD SWAP2 PUSH2 0x51E JUMP JUMPDEST DUP3 ADD SWAP2 SWAP1 PUSH1 0x0 MSTORE PUSH1 0x20 PUSH1 0x0 KECCAK256 SWAP1 JUMPDEST DUP2 SLOAD DUP2 MSTORE SWAP1 PUSH1 0x1 ADD SWAP1 PUSH1 0x20 ADD DUP1 DUP4 GT PUSH2 0x501 JUMPI DUP3 SWAP1 SUB PUSH1 0x1F AND DUP3 ADD SWAP2 JUMPDEST POP POP POP POP POP DUP2 MSTORE PUSH1 0x20 ADD PUSH1 0x5 DUP3 ADD DUP1 SLOAD PUSH2 0x537 SWAP1 PUSH2 0x1B79 JUMP JUMPDEST DUP1 PUSH1 0x1F ADD PUSH1 0x20 DUP1 SWAP2 DIV MUL PUSH1 0x20 ADD PUSH1 0x40 MLOAD SWAP1 DUP2 ADD PUSH1 0x40 MSTORE DUP1 SWAP3 SWAP2 SWAP1 DUP2 DUP2 MSTORE PUSH1 0x20 ADD DUP3 DUP1 SLOAD PUSH2 0x563 SWAP1 PUSH2 0x1B79 JUMP JUMPDEST DUP1 ISZERO PUSH2 0x5B0 JUMPI DUP1 PUSH1 0x1F LT PUSH2 0x585 JUMPI PUSH2 0x100 DUP1 DUP4 SLOAD DIV MUL DUP4 MSTORE SWAP2 PUSH1 0x20 ADD SWAP2 PUSH2 0x5B0 JUMP JUMPDEST DUP3 ADD SWAP2 SWAP1 PUSH1 0x0 MSTORE PUSH1 0x20 PUSH1 0x0 KECCAK256 SWAP1 JUMPDEST DUP2 SLOAD DUP2 MSTORE SWAP1 PUSH1 0x1 ADD SWAP1 PUSH1 0x20 ADD DUP1 DUP4 GT PUSH2 0x593 JUMPI DUP3 SWAP1 SUB PUSH1 0x1F AND DUP3 ADD SWAP2 JUMPDEST POP POP POP POP POP DUP2 MSTORE POP POP SWAP1 POP SWAP2 SWAP1 POP JUMP JUMPDEST PUSH1 0x0 PUSH1 0x1 PUSH1 0x0 DUP1 SLOAD SWAP1 POP PUSH2 0x5D4 SWAP2 SWAP1 PUSH2 0x1E83 JUMP JUMPDEST SWAP1 POP JUMPDEST PUSH1 0x1 DUP3 PUSH2 0x5E4 SWAP2 SWAP1 PUSH2 0x1E83 JUMP JUMPDEST DUP2 GT ISZERO PUSH2 0x659 JUMPI PUSH1 0x0 PUSH1 0x1 DUP3 PUSH2 0x5FA SWAP2 SWAP1 PUSH2 0x1E83 JUMP JUMPDEST DUP2 SLOAD DUP2 LT PUSH2 0x60B JUMPI PUSH2 0x60A PUSH2 0x1EB7 JUMP JUMPDEST JUMPDEST SWAP1 PUSH1 0x0 MSTORE PUSH1 0x20 PUSH1 0x0 KECCAK256 SWAP1 PUSH1 0x6 MUL ADD PUSH1 0x0 ADD SLOAD PUSH1 0x0 DUP3 DUP2 SLOAD DUP2 LT PUSH2 0x631 JUMPI PUSH2 0x630 PUSH2 0x1EB7 JUMP JUMPDEST JUMPDEST SWAP1 PUSH1 0x0 MSTORE PUSH1 0x20 PUSH1 0x0 KECCAK256 SWAP1 PUSH1 0x6 MUL ADD PUSH1 0x0 ADD DUP2 SWAP1 SSTORE POP DUP1 DUP1 PUSH2 0x651 SWAP1 PUSH2 0x1EE6 JUMP JUMPDEST SWAP2 POP POP PUSH2 0x5D7 JUMP JUMPDEST POP PUSH1 0x0 PUSH1 0x1 DUP3 PUSH2 0x669 SWAP2 SWAP1 PUSH2 0x1E83 JUMP JUMPDEST SWAP1 POP JUMPDEST PUSH1 0x1 PUSH1 0x0 DUP1 SLOAD SWAP1 POP PUSH2 0x67E SWAP2 SWAP1 PUSH2 0x1E83 JUMP JUMPDEST DUP2 LT ISZERO PUSH2 0x7B0 JUMPI PUSH1 0x0 PUSH1 0x1 DUP3 PUSH2 0x694 SWAP2 SWAP1 PUSH2 0x1F0F JUMP JUMPDEST DUP2 SLOAD DUP2 LT PUSH2 0x6A5 JUMPI PUSH2 0x6A4 PUSH2 0x1EB7 JUMP JUMPDEST JUMPDEST SWAP1 PUSH1 0x0 MSTORE PUSH1 0x20 PUSH1 0x0 KECCAK256 SWAP1 PUSH1 0x6 MUL ADD PUSH1 0x0 DUP3 DUP2 SLOAD DUP2 LT PUSH2 0x6C7 JUMPI PUSH2 0x6C6 PUSH2 0x1EB7 JUMP JUMPDEST JUMPDEST SWAP1 PUSH1 0x0 MSTORE PUSH1 0x20 PUSH1 0x0 KECCAK256 SWAP1 PUSH1 0x6 MUL ADD PUSH1 0x0 DUP3 ADD SLOAD DUP2 PUSH1 0x0 ADD SSTORE PUSH1 0x1 DUP3 ADD PUSH1 0x0 SWAP1 SLOAD SWAP1 PUSH2 0x100 EXP SWAP1 DIV PUSH20 0xFFFFFFFFFFFFFFFFFFFFFFFFFFFFFFFFFFFFFFFF AND DUP2 PUSH1 0x1 ADD PUSH1 0x0 PUSH2 0x100 EXP DUP2 SLOAD DUP2 PUSH20 0xFFFFFFFFFFFFFFFFFFFFFFFFFFFFFFFFFFFFFFFF MUL NOT AND SWAP1 DUP4 PUSH20 0xFFFFFFFFFFFFFFFFFFFFFFFFFFFFFFFFFFFFFFFF AND MUL OR SWAP1 SSTORE POP PUSH1 0x2 DUP3 ADD DUP2 PUSH1 0x2 ADD SWAP1 DUP2 PUSH2 0x75A SWAP2 SWAP1 PUSH2 0x1D6C JUMP JUMPDEST POP PUSH1 0x3 DUP3 ADD DUP2 PUSH1 0x3 ADD SWAP1 DUP2 PUSH2 0x76F SWAP2 SWAP1 PUSH2 0x1D6C JUMP JUMPDEST POP PUSH1 0x4 DUP3 ADD DUP2 PUSH1 0x4 ADD SWAP1 DUP2 PUSH2 0x784 SWAP2 SWAP1 PUSH2 0x1D6C JUMP JUMPDEST POP PUSH1 0x5 DUP3 ADD DUP2 PUSH1 0x5 ADD SWAP1 DUP2 PUSH2 0x799 SWAP2 SWAP1 PUSH2 0x1D6C JUMP JUMPDEST POP SWAP1 POP POP DUP1 DUP1 PUSH2 0x7A8 SWAP1 PUSH2 0x1F43 JUMP JUMPDEST SWAP2 POP POP PUSH2 0x66C JUMP JUMPDEST POP PUSH1 0x1 PUSH1 0x0 DUP2 SLOAD DUP1 SWAP3 SWAP2 SWAP1 PUSH2 0x7C4 SWAP1 PUSH2 0x1EE6 JUMP JUMPDEST SWAP2 SWAP1 POP SSTORE POP PUSH1 0x0 DUP1 SLOAD DUP1 PUSH2 0x7DB JUMPI PUSH2 0x7DA PUSH2 0x1F8B JUMP JUMPDEST JUMPDEST PUSH1 0x1 SWAP1 SUB DUP2 DUP2 SWAP1 PUSH1 0x0 MSTORE PUSH1 0x20 PUSH1 0x0 KECCAK256 SWAP1 PUSH1 0x6 MUL ADD PUSH1 0x0 DUP1 DUP3 ADD PUSH1 0x0 SWAP1 SSTORE PUSH1 0x1 DUP3 ADD PUSH1 0x0 PUSH2 0x100 EXP DUP2 SLOAD SWAP1 PUSH20 0xFFFFFFFFFFFFFFFFFFFFFFFFFFFFFFFFFFFFFFFF MUL NOT AND SWAP1 SSTORE PUSH1 0x2 DUP3 ADD PUSH1 0x0 PUSH2 0x82F SWAP2 SWAP1 PUSH2 0x131F JUMP JUMPDEST PUSH1 0x3 DUP3 ADD PUSH1 0x0 PUSH2 0x83F SWAP2 SWAP1 PUSH2 0x131F JUMP JUMPDEST PUSH1 0x4 DUP3 ADD PUSH1 0x0 PUSH2 0x84F SWAP2 SWAP1 PUSH2 0x131F JUMP JUMPDEST PUSH1 0x5 DUP3 ADD PUSH1 0x0 PUSH2 0x85F SWAP2 SWAP1 PUSH2 0x131F JUMP JUMPDEST POP POP SWAP1 SSTORE POP JUMP JUMPDEST DUP1 PUSH1 0x2 PUSH1 0x1 ADD PUSH1 0x0 PUSH2 0x100 EXP DUP2 SLOAD DUP2 PUSH20 0xFFFFFFFFFFFFFFFFFFFFFFFFFFFFFFFFFFFFFFFF MUL NOT AND SWAP1 DUP4 PUSH20 0xFFFFFFFFFFFFFFFFFFFFFFFFFFFFFFFFFFFFFFFF AND MUL OR SWAP1 SSTORE POP POP JUMP JUMPDEST PUSH2 0x8B5 PUSH2 0x12D3 JUMP JUMPDEST PUSH1 0x2 PUSH1 0x40 MLOAD DUP1 PUSH1 0xC0 ADD PUSH1 0x40 MSTORE SWAP1 DUP2 PUSH1 0x0 DUP3 ADD SLOAD DUP2 MSTORE PUSH1 0x20 ADD PUSH1 0x1 DUP3 ADD PUSH1 0x0 SWAP1 SLOAD SWAP1 PUSH2 0x100 EXP SWAP1 DIV PUSH20 0xFFFFFFFFFFFFFFFFFFFFFFFFFFFFFFFFFFFFFFFF AND PUSH20 0xFFFFFFFFFFFFFFFFFFFFFFFFFFFFFFFFFFFFFFFF AND PUSH20 0xFFFFFFFFFFFFFFFFFFFFFFFFFFFFFFFFFFFFFFFF AND DUP2 MSTORE PUSH1 0x20 ADD PUSH1 0x2 DUP3 ADD DUP1 SLOAD PUSH2 0x932 SWAP1 PUSH2 0x1B79 JUMP JUMPDEST DUP1 PUSH1 0x1F ADD PUSH1 0x20 DUP1 SWAP2 DIV MUL PUSH1 0x20 ADD PUSH1 0x40 MLOAD SWAP1 DUP2 ADD PUSH1 0x40 MSTORE DUP1 SWAP3 SWAP2 SWAP1 DUP2 DUP2 MSTORE PUSH1 0x20 ADD DUP3 DUP1 SLOAD PUSH2 0x95E SWAP1 PUSH2 0x1B79 JUMP JUMPDEST DUP1 ISZERO PUSH2 0x9AB JUMPI DUP1 PUSH1 0x1F LT PUSH2 0x980 JUMPI PUSH2 0x100 DUP1 DUP4 SLOAD DIV MUL DUP4 MSTORE SWAP2 PUSH1 0x20 ADD SWAP2 PUSH2 0x9AB JUMP JUMPDEST DUP3 ADD SWAP2 SWAP1 PUSH1 0x0 MSTORE PUSH1 0x20 PUSH1 0x0 KECCAK256 SWAP1 JUMPDEST DUP2 SLOAD DUP2 MSTORE SWAP1 PUSH1 0x1 ADD SWAP1 PUSH1 0x20 ADD DUP1 DUP4 GT PUSH2 0x98E JUMPI DUP3 SWAP1 SUB PUSH1 0x1F AND DUP3 ADD SWAP2 JUMPDEST POP POP POP POP POP DUP2 MSTORE PUSH1 0x20 ADD PUSH1 0x3 DUP3 ADD DUP1 SLOAD PUSH2 0x9C4 SWAP1 PUSH2 0x1B79 JUMP JUMPDEST DUP1 PUSH1 0x1F ADD PUSH1 0x20 DUP1 SWAP2 DIV MUL PUSH1 0x20 ADD PUSH1 0x40 MLOAD SWAP1 DUP2 ADD PUSH1 0x40 MSTORE DUP1 SWAP3 SWAP2 SWAP1 DUP2 DUP2 MSTORE PUSH1 0x20 ADD DUP3 DUP1 SLOAD PUSH2 0x9F0 SWAP1 PUSH2 0x1B79 JUMP JUMPDEST DUP1 ISZERO PUSH2 0xA3D JUMPI DUP1 PUSH1 0x1F LT PUSH2 0xA12 JUMPI PUSH2 0x100 DUP1 DUP4 SLOAD DIV MUL DUP4 MSTORE SWAP2 PUSH1 0x20 ADD SWAP2 PUSH2 0xA3D JUMP JUMPDEST DUP3 ADD SWAP2 SWAP1 PUSH1 0x0 MSTORE PUSH1 0x20 PUSH1 0x0 KECCAK256 SWAP1 JUMPDEST DUP2 SLOAD DUP2 MSTORE SWAP1 PUSH1 0x1 ADD SWAP1 PUSH1 0x20 ADD DUP1 DUP4 GT PUSH2 0xA20 JUMPI DUP3 SWAP1 SUB PUSH1 0x1F AND DUP3 ADD SWAP2 JUMPDEST POP POP POP POP POP DUP2 MSTORE PUSH1 0x20 ADD PUSH1 0x4 DUP3 ADD DUP1 SLOAD PUSH2 0xA56 SWAP1 PUSH2 0x1B79 JUMP JUMPDEST DUP1 PUSH1 0x1F ADD PUSH1 0x20 DUP1 SWAP2 DIV MUL PUSH1 0x20 ADD PUSH1 0x40 MLOAD SWAP1 DUP2 ADD PUSH1 0x40 MSTORE DUP1 SWAP3 SWAP2 SWAP1 DUP2 DUP2 MSTORE PUSH1 0x20 ADD DUP3 DUP1 SLOAD PUSH2 0xA82 SWAP1 PUSH2 0x1B79 JUMP JUMPDEST DUP1 ISZERO PUSH2 0xACF JUMPI DUP1 PUSH1 0x1F LT PUSH2 0xAA4 JUMPI PUSH2 0x100 DUP1 DUP4 SLOAD DIV MUL DUP4 MSTORE SWAP2 PUSH1 0x20 ADD SWAP2 PUSH2 0xACF JUMP JUMPDEST DUP3 ADD SWAP2 SWAP1 PUSH1 0x0 MSTORE PUSH1 0x20 PUSH1 0x0 KECCAK256 SWAP1 JUMPDEST DUP2 SLOAD DUP2 MSTORE SWAP1 PUSH1 0x1 ADD SWAP1 PUSH1 0x20 ADD DUP1 DUP4 GT PUSH2 0xAB2 JUMPI DUP3 SWAP1 SUB PUSH1 0x1F AND DUP3 ADD SWAP2 JUMPDEST POP POP POP POP POP DUP2 MSTORE PUSH1 0x20 ADD PUSH1 0x5 DUP3 ADD DUP1 SLOAD PUSH2 0xAE8 SWAP1 PUSH2 0x1B79 JUMP JUMPDEST DUP1 PUSH1 0x1F ADD PUSH1 0x20 DUP1 SWAP2 DIV MUL PUSH1 0x20 ADD PUSH1 0x40 MLOAD SWAP1 DUP2 ADD PUSH1 0x40 MSTORE DUP1 SWAP3 SWAP2 SWAP1 DUP2 DUP2 MSTORE PUSH1 0x20 ADD DUP3 DUP1 SLOAD PUSH2 0xB14 SWAP1 PUSH2 0x1B79 JUMP JUMPDEST DUP1 ISZERO PUSH2 0xB61 JUMPI DUP1 PUSH1 0x1F LT PUSH2 0xB36 JUMPI PUSH2 0x100 DUP1 DUP4 SLOAD DIV MUL DUP4 MSTORE SWAP2 PUSH1 0x20 ADD SWAP2 PUSH2 0xB61 JUMP JUMPDEST DUP3 ADD SWAP2 SWAP1 PUSH1 0x0 MSTORE PUSH1 0x20 PUSH1 0x0 KECCAK256 SWAP1 JUMPDEST DUP2 SLOAD DUP2 MSTORE SWAP1 PUSH1 0x1 ADD SWAP1 PUSH1 0x20 ADD DUP1 DUP4 GT PUSH2 0xB44 JUMPI DUP3 SWAP1 SUB PUSH1 0x1F AND DUP3 ADD SWAP2 JUMPDEST POP POP POP POP POP DUP2 MSTORE POP POP SWAP1 POP SWAP1 JUMP JUMPDEST PUSH1 0x60 PUSH1 0x0 DUP1 SLOAD DUP1 PUSH1 0x20 MUL PUSH1 0x20 ADD PUSH1 0x40 MLOAD SWAP1 DUP2 ADD PUSH1 0x40 MSTORE DUP1 SWAP3 SWAP2 SWAP1 DUP2 DUP2 MSTORE PUSH1 0x20 ADD PUSH1 0x0 SWAP1 JUMPDEST DUP3 DUP3 LT ISZERO PUSH2 0xE6D JUMPI DUP4 DUP3 SWAP1 PUSH1 0x0 MSTORE PUSH1 0x20 PUSH1 0x0 KECCAK256 SWAP1 PUSH1 0x6 MUL ADD PUSH1 0x40 MLOAD DUP1 PUSH1 0xC0 ADD PUSH1 0x40 MSTORE SWAP1 DUP2 PUSH1 0x0 DUP3 ADD SLOAD DUP2 MSTORE PUSH1 0x20 ADD PUSH1 0x1 DUP3 ADD PUSH1 0x0 SWAP1 SLOAD SWAP1 PUSH2 0x100 EXP SWAP1 DIV PUSH20 0xFFFFFFFFFFFFFFFFFFFFFFFFFFFFFFFFFFFFFFFF AND PUSH20 0xFFFFFFFFFFFFFFFFFFFFFFFFFFFFFFFFFFFFFFFF AND PUSH20 0xFFFFFFFFFFFFFFFFFFFFFFFFFFFFFFFFFFFFFFFF AND DUP2 MSTORE PUSH1 0x20 ADD PUSH1 0x2 DUP3 ADD DUP1 SLOAD PUSH2 0xC26 SWAP1 PUSH2 0x1B79 JUMP JUMPDEST DUP1 PUSH1 0x1F ADD PUSH1 0x20 DUP1 SWAP2 DIV MUL PUSH1 0x20 ADD PUSH1 0x40 MLOAD SWAP1 DUP2 ADD PUSH1 0x40 MSTORE DUP1 SWAP3 SWAP2 SWAP1 DUP2 DUP2 MSTORE PUSH1 0x20 ADD DUP3 DUP1 SLOAD PUSH2 0xC52 SWAP1 PUSH2 0x1B79 JUMP JUMPDEST DUP1 ISZERO PUSH2 0xC9F JUMPI DUP1 PUSH1 0x1F LT PUSH2 0xC74 JUMPI PUSH2 0x100 DUP1 DUP4 SLOAD DIV MUL DUP4 MSTORE SWAP2 PUSH1 0x20 ADD SWAP2 PUSH2 0xC9F JUMP JUMPDEST DUP3 ADD SWAP2 SWAP1 PUSH1 0x0 MSTORE PUSH1 0x20 PUSH1 0x0 KECCAK256 SWAP1 JUMPDEST DUP2 SLOAD DUP2 MSTORE SWAP1 PUSH1 0x1 ADD SWAP1 PUSH1 0x20 ADD DUP1 DUP4 GT PUSH2 0xC82 JUMPI DUP3 SWAP1 SUB PUSH1 0x1F AND DUP3 ADD SWAP2 JUMPDEST POP POP POP POP POP DUP2 MSTORE PUSH1 0x20 ADD PUSH1 0x3 DUP3 ADD DUP1 SLOAD PUSH2 0xCB8 SWAP1 PUSH2 0x1B79 JUMP JUMPDEST DUP1 PUSH1 0x1F ADD PUSH1 0x20 DUP1 SWAP2 DIV MUL PUSH1 0x20 ADD PUSH1 0x40 MLOAD SWAP1 DUP2 ADD PUSH1 0x40 MSTORE DUP1 SWAP3 SWAP2 SWAP1 DUP2 DUP2 MSTORE PUSH1 0x20 ADD DUP3 DUP1 SLOAD PUSH2 0xCE4 SWAP1 PUSH2 0x1B79 JUMP JUMPDEST DUP1 ISZERO PUSH2 0xD31 JUMPI DUP1 PUSH1 0x1F LT PUSH2 0xD06 JUMPI PUSH2 0x100 DUP1 DUP4 SLOAD DIV MUL DUP4 MSTORE SWAP2 PUSH1 0x20 ADD SWAP2 PUSH2 0xD31 JUMP JUMPDEST DUP3 ADD SWAP2 SWAP1 PUSH1 0x0 MSTORE PUSH1 0x20 PUSH1 0x0 KECCAK256 SWAP1 JUMPDEST DUP2 SLOAD DUP2 MSTORE SWAP1 PUSH1 0x1 ADD SWAP1 PUSH1 0x20 ADD DUP1 DUP4 GT PUSH2 0xD14 JUMPI DUP3 SWAP1 SUB PUSH1 0x1F AND DUP3 ADD SWAP2 JUMPDEST POP POP POP POP POP DUP2 MSTORE PUSH1 0x20 ADD PUSH1 0x4 DUP3 ADD DUP1 SLOAD PUSH2 0xD4A SWAP1 PUSH2 0x1B79 JUMP JUMPDEST DUP1 PUSH1 0x1F ADD PUSH1 0x20 DUP1 SWAP2 DIV MUL PUSH1 0x20 ADD PUSH1 0x40 MLOAD SWAP1 DUP2 ADD PUSH1 0x40 MSTORE DUP1 SWAP3 SWAP2 SWAP1 DUP2 DUP2 MSTORE PUSH1 0x20 ADD DUP3 DUP1 SLOAD PUSH2 0xD76 SWAP1 PUSH2 0x1B79 JUMP JUMPDEST DUP1 ISZERO PUSH2 0xDC3 JUMPI DUP1 PUSH1 0x1F LT PUSH2 0xD98 JUMPI PUSH2 0x100 DUP1 DUP4 SLOAD DIV MUL DUP4 MSTORE SWAP2 PUSH1 0x20 ADD SWAP2 PUSH2 0xDC3 JUMP JUMPDEST DUP3 ADD SWAP2 SWAP1 PUSH1 0x0 MSTORE PUSH1 0x20 PUSH1 0x0 KECCAK256 SWAP1 JUMPDEST DUP2 SLOAD DUP2 MSTORE SWAP1 PUSH1 0x1 ADD SWAP1 PUSH1 0x20 ADD DUP1 DUP4 GT PUSH2 0xDA6 JUMPI DUP3 SWAP1 SUB PUSH1 0x1F AND DUP3 ADD SWAP2 JUMPDEST POP POP POP POP POP DUP2 MSTORE PUSH1 0x20 ADD PUSH1 0x5 DUP3 ADD DUP1 SLOAD PUSH2 0xDDC SWAP1 PUSH2 0x1B79 JUMP JUMPDEST DUP1 PUSH1 0x1F ADD PUSH1 0x20 DUP1 SWAP2 DIV MUL PUSH1 0x20 ADD PUSH1 0x40 MLOAD SWAP1 DUP2 ADD PUSH1 0x40 MSTORE DUP1 SWAP3 SWAP2 SWAP1 DUP2 DUP2 MSTORE PUSH1 0x20 ADD DUP3 DUP1 SLOAD PUSH2 0xE08 SWAP1 PUSH2 0x1B79 JUMP JUMPDEST DUP1 ISZERO PUSH2 0xE55 JUMPI DUP1 PUSH1 0x1F LT PUSH2 0xE2A JUMPI PUSH2 0x100 DUP1 DUP4 SLOAD DIV MUL DUP4 MSTORE SWAP2 PUSH1 0x20 ADD SWAP2 PUSH2 0xE55 JUMP JUMPDEST DUP3 ADD SWAP2 SWAP1 PUSH1 0x0 MSTORE PUSH1 0x20 PUSH1 0x0 KECCAK256 SWAP1 JUMPDEST DUP2 SLOAD DUP2 MSTORE SWAP1 PUSH1 0x1 ADD SWAP1 PUSH1 0x20 ADD DUP1 DUP4 GT PUSH2 0xE38 JUMPI DUP3 SWAP1 SUB PUSH1 0x1F AND DUP3 ADD SWAP2 JUMPDEST POP POP POP POP POP DUP2 MSTORE POP POP DUP2 MSTORE PUSH1 0x20 ADD SWAP1 PUSH1 0x1 ADD SWAP1 PUSH2 0xB93 JUMP JUMPDEST POP POP POP POP SWAP1 POP SWAP1 JUMP JUMPDEST PUSH1 0x0 DUP2 DUP2 SLOAD DUP2 LT PUSH2 0xE86 JUMPI PUSH1 0x0 DUP1 REVERT JUMPDEST SWAP1 PUSH1 0x0 MSTORE PUSH1 0x20 PUSH1 0x0 KECCAK256 SWAP1 PUSH1 0x6 MUL ADD PUSH1 0x0 SWAP2 POP SWAP1 POP DUP1 PUSH1 0x0 ADD SLOAD SWAP1 DUP1 PUSH1 0x1 ADD PUSH1 0x0 SWAP1 SLOAD SWAP1 PUSH2 0x100 EXP SWAP1 DIV PUSH20 0xFFFFFFFFFFFFFFFFFFFFFFFFFFFFFFFFFFFFFFFF AND SWAP1 DUP1 PUSH1 0x2 ADD DUP1 SLOAD PUSH2 0xED5 SWAP1 PUSH2 0x1B79 JUMP JUMPDEST DUP1 PUSH1 0x1F ADD PUSH1 0x20 DUP1 SWAP2 DIV MUL PUSH1 0x20 ADD PUSH1 0x40 MLOAD SWAP1 DUP2 ADD PUSH1 0x40 MSTORE DUP1 SWAP3 SWAP2 SWAP1 DUP2 DUP2 MSTORE PUSH1 0x20 ADD DUP3 DUP1 SLOAD PUSH2 0xF01 SWAP1 PUSH2 0x1B79 JUMP JUMPDEST DUP1 ISZERO PUSH2 0xF4E JUMPI DUP1 PUSH1 0x1F LT PUSH2 0xF23 JUMPI PUSH2 0x100 DUP1 DUP4 SLOAD DIV MUL DUP4 MSTORE SWAP2 PUSH1 0x20 ADD SWAP2 PUSH2 0xF4E JUMP JUMPDEST DUP3 ADD SWAP2 SWAP1 PUSH1 0x0 MSTORE PUSH1 0x20 PUSH1 0x0 KECCAK256 SWAP1 JUMPDEST DUP2 SLOAD DUP2 MSTORE SWAP1 PUSH1 0x1 ADD SWAP1 PUSH1 0x20 ADD DUP1 DUP4 GT PUSH2 0xF31 JUMPI DUP3 SWAP1 SUB PUSH1 0x1F AND DUP3 ADD SWAP2 JUMPDEST POP POP POP POP POP SWAP1 DUP1 PUSH1 0x3 ADD DUP1 SLOAD PUSH2 0xF63 SWAP1 PUSH2 0x1B79 JUMP JUMPDEST DUP1 PUSH1 0x1F ADD PUSH1 0x20 DUP1 SWAP2 DIV MUL PUSH1 0x20 ADD PUSH1 0x40 MLOAD SWAP1 DUP2 ADD PUSH1 0x40 MSTORE DUP1 SWAP3 SWAP2 SWAP1 DUP2 DUP2 MSTORE PUSH1 0x20 ADD DUP3 DUP1 SLOAD PUSH2 0xF8F SWAP1 PUSH2 0x1B79 JUMP JUMPDEST DUP1 ISZERO PUSH2 0xFDC JUMPI DUP1 PUSH1 0x1F LT PUSH2 0xFB1 JUMPI PUSH2 0x100 DUP1 DUP4 SLOAD DIV MUL DUP4 MSTORE SWAP2 PUSH1 0x20 ADD SWAP2 PUSH2 0xFDC JUMP JUMPDEST DUP3 ADD SWAP2 SWAP1 PUSH1 0x0 MSTORE PUSH1 0x20 PUSH1 0x0 KECCAK256 SWAP1 JUMPDEST DUP2 SLOAD DUP2 MSTORE SWAP1 PUSH1 0x1 ADD SWAP1 PUSH1 0x20 ADD DUP1 DUP4 GT PUSH2 0xFBF JUMPI DUP3 SWAP1 SUB PUSH1 0x1F AND DUP3 ADD SWAP2 JUMPDEST POP POP POP POP POP SWAP1 DUP1 PUSH1 0x4 ADD DUP1 SLOAD PUSH2 0xFF1 SWAP1 PUSH2 0x1B79 JUMP JUMPDEST DUP1 PUSH1 0x1F ADD PUSH1 0x20 DUP1 SWAP2 DIV MUL PUSH1 0x20 ADD PUSH1 0x40 MLOAD SWAP1 DUP2 ADD PUSH1 0x40 MSTORE DUP1 SWAP3 SWAP2 SWAP1 DUP2 DUP2 MSTORE PUSH1 0x20 ADD DUP3 DUP1 SLOAD PUSH2 0x101D SWAP1 PUSH2 0x1B79 JUMP JUMPDEST DUP1 ISZERO PUSH2 0x106A JUMPI DUP1 PUSH1 0x1F LT PUSH2 0x103F JUMPI PUSH2 0x100 DUP1 DUP4 SLOAD DIV MUL DUP4 MSTORE SWAP2 PUSH1 0x20 ADD SWAP2 PUSH2 0x106A JUMP JUMPDEST DUP3 ADD SWAP2 SWAP1 PUSH1 0x0 MSTORE PUSH1 0x20 PUSH1 0x0 KECCAK256 SWAP1 JUMPDEST DUP2 SLOAD DUP2 MSTORE SWAP1 PUSH1 0x1 ADD SWAP1 PUSH1 0x20 ADD DUP1 DUP4 GT PUSH2 0x104D JUMPI DUP3 SWAP1 SUB PUSH1 0x1F AND DUP3 ADD SWAP2 JUMPDEST POP POP POP POP POP SWAP1 DUP1 PUSH1 0x5 ADD DUP1 SLOAD PUSH2 0x107F SWAP1 PUSH2 0x1B79 JUMP JUMPDEST DUP1 PUSH1 0x1F ADD PUSH1 0x20 DUP1 SWAP2 DIV MUL PUSH1 0x20 ADD PUSH1 0x40 MLOAD SWAP1 DUP2 ADD PUSH1 0x40 MSTORE DUP1 SWAP3 SWAP2 SWAP1 DUP2 DUP2 MSTORE PUSH1 0x20 ADD DUP3 DUP1 SLOAD PUSH2 0x10AB SWAP1 PUSH2 0x1B79 JUMP JUMPDEST DUP1 ISZERO PUSH2 0x10F8 JUMPI DUP1 PUSH1 0x1F LT PUSH2 0x10CD JUMPI PUSH2 0x100 DUP1 DUP4 SLOAD DIV MUL DUP4 MSTORE SWAP2 PUSH1 0x20 ADD SWAP2 PUSH2 0x10F8 JUMP JUMPDEST DUP3 ADD SWAP2 SWAP1 PUSH1 0x0 MSTORE PUSH1 0x20 PUSH1 0x0 KECCAK256 SWAP1 JUMPDEST DUP2 SLOAD DUP2 MSTORE SWAP1 PUSH1 0x1 ADD SWAP1 PUSH1 0x20 ADD DUP1 DUP4 GT PUSH2 0x10DB JUMPI DUP3 SWAP1 SUB PUSH1 0x1F AND DUP3 ADD SWAP2 JUMPDEST POP POP POP POP POP SWAP1 POP DUP7 JUMP JUMPDEST DUP1 PUSH1 0x2 PUSH1 0x0 ADD DUP2 SWAP1 SSTORE POP POP JUMP JUMPDEST PUSH1 0x1 SLOAD PUSH1 0x2 PUSH1 0x0 ADD DUP2 SWAP1 SSTORE POP PUSH1 0x1 PUSH1 0x0 DUP2 SLOAD DUP1 SWAP3 SWAP2 SWAP1 PUSH2 0x112E SWAP1 PUSH2 0x1F43 JUMP JUMPDEST SWAP2 SWAP1 POP SSTORE POP CALLER PUSH1 0x2 PUSH1 0x1 ADD PUSH1 0x0 PUSH2 0x100 EXP DUP2 SLOAD DUP2 PUSH20 0xFFFFFFFFFFFFFFFFFFFFFFFFFFFFFFFFFFFFFFFF MUL NOT AND SWAP1 DUP4 PUSH20 0xFFFFFFFFFFFFFFFFFFFFFFFFFFFFFFFFFFFFFFFF AND MUL OR SWAP1 SSTORE POP DUP4 PUSH1 0x2 DUP1 ADD SWAP1 DUP2 PUSH2 0x1188 SWAP2 SWAP1 PUSH2 0x1FBA JUMP JUMPDEST POP DUP3 PUSH1 0x2 PUSH1 0x3 ADD SWAP1 DUP2 PUSH2 0x119B SWAP2 SWAP1 PUSH2 0x1FBA JUMP JUMPDEST POP DUP2 PUSH1 0x2 PUSH1 0x4 ADD SWAP1 DUP2 PUSH2 0x11AE SWAP2 SWAP1 PUSH2 0x1FBA JUMP JUMPDEST POP DUP1 PUSH1 0x2 PUSH1 0x5 ADD SWAP1 DUP2 PUSH2 0x11C1 SWAP2 SWAP1 PUSH2 0x1FBA JUMP JUMPDEST POP PUSH2 0x11CA PUSH2 0x1DA JUMP JUMPDEST POP POP POP POP JUMP JUMPDEST DUP4 PUSH1 0x0 PUSH1 0x1 DUP8 PUSH2 0x11E0 SWAP2 SWAP1 PUSH2 0x1E83 JUMP JUMPDEST DUP2 SLOAD DUP2 LT PUSH2 0x11F1 JUMPI PUSH2 0x11F0 PUSH2 0x1EB7 JUMP JUMPDEST JUMPDEST SWAP1 PUSH1 0x0 MSTORE PUSH1 0x20 PUSH1 0x0 KECCAK256 SWAP1 PUSH1 0x6 MUL ADD PUSH1 0x2 ADD SWAP1 DUP2 PUSH2 0x120E SWAP2 SWAP1 PUSH2 0x1FBA JUMP JUMPDEST POP DUP3 PUSH1 0x0 PUSH1 0x1 DUP8 PUSH2 0x121F SWAP2 SWAP1 PUSH2 0x1E83 JUMP JUMPDEST DUP2 SLOAD DUP2 LT PUSH2 0x1230 JUMPI PUSH2 0x122F PUSH2 0x1EB7 JUMP JUMPDEST JUMPDEST SWAP1 PUSH1 0x0 MSTORE PUSH1 0x20 PUSH1 0x0 KECCAK256 SWAP1 PUSH1 0x6 MUL ADD PUSH1 0x3 ADD SWAP1 DUP2 PUSH2 0x124D SWAP2 SWAP1 PUSH2 0x1FBA JUMP JUMPDEST POP DUP2 PUSH1 0x0 PUSH1 0x1 DUP8 PUSH2 0x125E SWAP2 SWAP1 PUSH2 0x1E83 JUMP JUMPDEST DUP2 SLOAD DUP2 LT PUSH2 0x126F JUMPI PUSH2 0x126E PUSH2 0x1EB7 JUMP JUMPDEST JUMPDEST SWAP1 PUSH1 0x0 MSTORE PUSH1 0x20 PUSH1 0x0 KECCAK256 SWAP1 PUSH1 0x6 MUL ADD PUSH1 0x4 ADD SWAP1 DUP2 PUSH2 0x128C SWAP2 SWAP1 PUSH2 0x1FBA JUMP JUMPDEST POP DUP1 PUSH1 0x0 PUSH1 0x1 DUP8 PUSH2 0x129D SWAP2 SWAP1 PUSH2 0x1E83 JUMP JUMPDEST DUP2 SLOAD DUP2 LT PUSH2 0x12AE JUMPI PUSH2 0x12AD PUSH2 0x1EB7 JUMP JUMPDEST JUMPDEST SWAP1 PUSH1 0x0 MSTORE PUSH1 0x20 PUSH1 0x0 KECCAK256 SWAP1 PUSH1 0x6 MUL ADD PUSH1 0x5 ADD SWAP1 DUP2 PUSH2 0x12CB SWAP2 SWAP1 PUSH2 0x1FBA JUMP JUMPDEST POP POP POP POP POP POP JUMP JUMPDEST PUSH1 0x40 MLOAD DUP1 PUSH1 0xC0 ADD PUSH1 0x40 MSTORE DUP1 PUSH1 0x0 DUP2 MSTORE PUSH1 0x20 ADD PUSH1 0x0 PUSH20 0xFFFFFFFFFFFFFFFFFFFFFFFFFFFFFFFFFFFFFFFF AND DUP2 MSTORE PUSH1 0x20 ADD PUSH1 0x60 DUP2 MSTORE PUSH1 0x20 ADD PUSH1 0x60 DUP2 MSTORE PUSH1 0x20 ADD PUSH1 0x60 DUP2 MSTORE PUSH1 0x20 ADD PUSH1 0x60 DUP2 MSTORE POP SWAP1 JUMP JUMPDEST POP DUP1 SLOAD PUSH2 0x132B SWAP1 PUSH2 0x1B79 JUMP JUMPDEST PUSH1 0x0 DUP3 SSTORE DUP1 PUSH1 0x1F LT PUSH2 0x133D JUMPI POP PUSH2 0x135C JUMP JUMPDEST PUSH1 0x1F ADD PUSH1 0x20 SWAP1 DIV SWAP1 PUSH1 0x0 MSTORE PUSH1 0x20 PUSH1 0x0 KECCAK256 SWAP1 DUP2 ADD SWAP1 PUSH2 0x135B SWAP2 SWAP1 PUSH2 0x135F JUMP JUMPDEST JUMPDEST POP JUMP JUMPDEST JUMPDEST DUP1 DUP3 GT ISZERO PUSH2 0x1378 JUMPI PUSH1 0x0 DUP2 PUSH1 0x0 SWAP1 SSTORE POP PUSH1 0x1 ADD PUSH2 0x1360 JUMP JUMPDEST POP SWAP1 JUMP JUMPDEST PUSH1 0x0 PUSH1 0x40 MLOAD SWAP1 POP SWAP1 JUMP JUMPDEST PUSH1 0x0 DUP1 REVERT JUMPDEST PUSH1 0x0 DUP1 REVERT JUMPDEST PUSH1 0x0 DUP2 SWAP1 POP SWAP2 SWAP1 POP JUMP JUMPDEST PUSH2 0x13A3 DUP2 PUSH2 0x1390 JUMP JUMPDEST DUP2 EQ PUSH2 0x13AE JUMPI PUSH1 0x0 DUP1 REVERT JUMPDEST POP JUMP JUMPDEST PUSH1 0x0 DUP2 CALLDATALOAD SWAP1 POP PUSH2 0x13C0 DUP2 PUSH2 0x139A JUMP JUMPDEST SWAP3 SWAP2 POP POP JUMP JUMPDEST PUSH1 0x0 PUSH1 0x20 DUP3 DUP5 SUB SLT ISZERO PUSH2 0x13DC JUMPI PUSH2 0x13DB PUSH2 0x1386 JUMP JUMPDEST JUMPDEST PUSH1 0x0 PUSH2 0x13EA DUP5 DUP3 DUP6 ADD PUSH2 0x13B1 JUMP JUMPDEST SWAP2 POP POP SWAP3 SWAP2 POP POP JUMP JUMPDEST PUSH2 0x13FC DUP2 PUSH2 0x1390 JUMP JUMPDEST DUP3 MSTORE POP POP JUMP JUMPDEST PUSH1 0x0 PUSH20 0xFFFFFFFFFFFFFFFFFFFFFFFFFFFFFFFFFFFFFFFF DUP3 AND SWAP1 POP SWAP2 SWAP1 POP JUMP JUMPDEST PUSH1 0x0 PUSH2 0x142D DUP3 PUSH2 0x1402 JUMP JUMPDEST SWAP1 POP SWAP2 SWAP1 POP JUMP JUMPDEST PUSH2 0x143D DUP2 PUSH2 0x1422 JUMP JUMPDEST DUP3 MSTORE POP POP JUMP JUMPDEST PUSH1 0x0 DUP2 MLOAD SWAP1 POP SWAP2 SWAP1 POP JUMP JUMPDEST PUSH1 0x0 DUP3 DUP3 MSTORE PUSH1 0x20 DUP3 ADD SWAP1 POP SWAP3 SWAP2 POP POP JUMP JUMPDEST PUSH1 0x0 JUMPDEST DUP4 DUP2 LT ISZERO PUSH2 0x147D JUMPI DUP1 DUP3 ADD MLOAD DUP2 DUP5 ADD MSTORE PUSH1 0x20 DUP2 ADD SWAP1 POP PUSH2 0x1462 JUMP JUMPDEST PUSH1 0x0 DUP5 DUP5 ADD MSTORE POP POP POP POP JUMP JUMPDEST PUSH1 0x0 PUSH1 0x1F NOT PUSH1 0x1F DUP4 ADD AND SWAP1 POP SWAP2 SWAP1 POP JUMP JUMPDEST PUSH1 0x0 PUSH2 0x14A5 DUP3 PUSH2 0x1443 JUMP JUMPDEST PUSH2 0x14AF DUP2 DUP6 PUSH2 0x144E JUMP JUMPDEST SWAP4 POP PUSH2 0x14BF DUP2 DUP6 PUSH1 0x20 DUP7 ADD PUSH2 0x145F JUMP JUMPDEST PUSH2 0x14C8 DUP2 PUSH2 0x1489 JUMP JUMPDEST DUP5 ADD SWAP2 POP POP SWAP3 SWAP2 POP POP JUMP JUMPDEST PUSH1 0x0 PUSH1 0xC0 DUP4 ADD PUSH1 0x0 DUP4 ADD MLOAD PUSH2 0x14EB PUSH1 0x0 DUP7 ADD DUP3 PUSH2 0x13F3 JUMP JUMPDEST POP PUSH1 0x20 DUP4 ADD MLOAD PUSH2 0x14FE PUSH1 0x20 DUP7 ADD DUP3 PUSH2 0x1434 JUMP JUMPDEST POP PUSH1 0x40 DUP4 ADD MLOAD DUP5 DUP3 SUB PUSH1 0x40 DUP7 ADD MSTORE PUSH2 0x1516 DUP3 DUP3 PUSH2 0x149A JUMP JUMPDEST SWAP2 POP POP PUSH1 0x60 DUP4 ADD MLOAD DUP5 DUP3 SUB PUSH1 0x60 DUP7 ADD MSTORE PUSH2 0x1530 DUP3 DUP3 PUSH2 0x149A JUMP JUMPDEST SWAP2 POP POP PUSH1 0x80 DUP4 ADD MLOAD DUP5 DUP3 SUB PUSH1 0x80 DUP7 ADD MSTORE PUSH2 0x154A DUP3 DUP3 PUSH2 0x149A JUMP JUMPDEST SWAP2 POP POP PUSH1 0xA0 DUP4 ADD MLOAD DUP5 DUP3 SUB PUSH1 0xA0 DUP7 ADD MSTORE PUSH2 0x1564 DUP3 DUP3 PUSH2 0x149A JUMP JUMPDEST SWAP2 POP POP DUP1 SWAP2 POP POP SWAP3 SWAP2 POP POP JUMP JUMPDEST PUSH1 0x0 PUSH1 0x20 DUP3 ADD SWAP1 POP DUP2 DUP2 SUB PUSH1 0x0 DUP4 ADD MSTORE PUSH2 0x158B DUP2 DUP5 PUSH2 0x14D3 JUMP JUMPDEST SWAP1 POP SWAP3 SWAP2 POP POP JUMP JUMPDEST PUSH2 0x159C DUP2 PUSH2 0x1422 JUMP JUMPDEST DUP2 EQ PUSH2 0x15A7 JUMPI PUSH1 0x0 DUP1 REVERT JUMPDEST POP JUMP JUMPDEST PUSH1 0x0 DUP2 CALLDATALOAD SWAP1 POP PUSH2 0x15B9 DUP2 PUSH2 0x1593 JUMP JUMPDEST SWAP3 SWAP2 POP POP JUMP JUMPDEST PUSH1 0x0 PUSH1 0x20 DUP3 DUP5 SUB SLT ISZERO PUSH2 0x15D5 JUMPI PUSH2 0x15D4 PUSH2 0x1386 JUMP JUMPDEST JUMPDEST PUSH1 0x0 PUSH2 0x15E3 DUP5 DUP3 DUP6 ADD PUSH2 0x15AA JUMP JUMPDEST SWAP2 POP POP SWAP3 SWAP2 POP POP JUMP JUMPDEST PUSH1 0x0 DUP2 MLOAD SWAP1 POP SWAP2 SWAP1 POP JUMP JUMPDEST PUSH1 0x0 DUP3 DUP3 MSTORE PUSH1 0x20 DUP3 ADD SWAP1 POP SWAP3 SWAP2 POP POP JUMP JUMPDEST PUSH1 0x0 DUP2 SWAP1 POP PUSH1 0x20 DUP3 ADD SWAP1 POP SWAP2 SWAP1 POP JUMP JUMPDEST PUSH1 0x0 PUSH1 0xC0 DUP4 ADD PUSH1 0x0 DUP4 ADD MLOAD PUSH2 0x1630 PUSH1 0x0 DUP7 ADD DUP3 PUSH2 0x13F3 JUMP JUMPDEST POP PUSH1 0x20 DUP4 ADD MLOAD PUSH2 0x1643 PUSH1 0x20 DUP7 ADD DUP3 PUSH2 0x1434 JUMP JUMPDEST POP PUSH1 0x40 DUP4 ADD MLOAD DUP5 DUP3 SUB PUSH1 0x40 DUP7 ADD MSTORE PUSH2 0x165B DUP3 DUP3 PUSH2 0x149A JUMP JUMPDEST SWAP2 POP POP PUSH1 0x60 DUP4 ADD MLOAD DUP5 DUP3 SUB PUSH1 0x60 DUP7 ADD MSTORE PUSH2 0x1675 DUP3 DUP3 PUSH2 0x149A JUMP JUMPDEST SWAP2 POP POP PUSH1 0x80 DUP4 ADD MLOAD DUP5 DUP3 SUB PUSH1 0x80 DUP7 ADD MSTORE PUSH2 0x168F DUP3 DUP3 PUSH2 0x149A JUMP JUMPDEST SWAP2 POP POP PUSH1 0xA0 DUP4 ADD MLOAD DUP5 DUP3 SUB PUSH1 0xA0 DUP7 ADD MSTORE PUSH2 0x16A9 DUP3 DUP3 PUSH2 0x149A JUMP JUMPDEST SWAP2 POP POP DUP1 SWAP2 POP POP SWAP3 SWAP2 POP POP JUMP JUMPDEST PUSH1 0x0 PUSH2 0x16C2 DUP4 DUP4 PUSH2 0x1618 JUMP JUMPDEST SWAP1 POP SWAP3 SWAP2 POP POP JUMP JUMPDEST PUSH1 0x0 PUSH1 0x20 DUP3 ADD SWAP1 POP SWAP2 SWAP1 POP JUMP JUMPDEST PUSH1 0x0 PUSH2 0x16E2 DUP3 PUSH2 0x15EC JUMP JUMPDEST PUSH2 0x16EC DUP2 DUP6 PUSH2 0x15F7 JUMP JUMPDEST SWAP4 POP DUP4 PUSH1 0x20 DUP3 MUL DUP6 ADD PUSH2 0x16FE DUP6 PUSH2 0x1608 JUMP JUMPDEST DUP1 PUSH1 0x0 JUMPDEST DUP6 DUP2 LT ISZERO PUSH2 0x173A JUMPI DUP5 DUP5 SUB DUP10 MSTORE DUP2 MLOAD PUSH2 0x171B DUP6 DUP3 PUSH2 0x16B6 JUMP JUMPDEST SWAP5 POP PUSH2 0x1726 DUP4 PUSH2 0x16CA JUMP JUMPDEST SWAP3 POP PUSH1 0x20 DUP11 ADD SWAP10 POP POP PUSH1 0x1 DUP2 ADD SWAP1 POP PUSH2 0x1702 JUMP JUMPDEST POP DUP3 SWAP8 POP DUP8 SWAP6 POP POP POP POP POP POP SWAP3 SWAP2 POP POP JUMP JUMPDEST PUSH1 0x0 PUSH1 0x20 DUP3 ADD SWAP1 POP DUP2 DUP2 SUB PUSH1 0x0 DUP4 ADD MSTORE PUSH2 0x1766 DUP2 DUP5 PUSH2 0x16D7 JUMP JUMPDEST SWAP1 POP SWAP3 SWAP2 POP POP JUMP JUMPDEST PUSH2 0x1777 DUP2 PUSH2 0x1390 JUMP JUMPDEST DUP3 MSTORE POP POP JUMP JUMPDEST PUSH2 0x1786 DUP2 PUSH2 0x1422 JUMP JUMPDEST DUP3 MSTORE POP POP JUMP JUMPDEST PUSH1 0x0 DUP3 DUP3 MSTORE PUSH1 0x20 DUP3 ADD SWAP1 POP SWAP3 SWAP2 POP POP JUMP JUMPDEST PUSH1 0x0 PUSH2 0x17A8 DUP3 PUSH2 0x1443 JUMP JUMPDEST PUSH2 0x17B2 DUP2 DUP6 PUSH2 0x178C JUMP JUMPDEST SWAP4 POP PUSH2 0x17C2 DUP2 DUP6 PUSH1 0x20 DUP7 ADD PUSH2 0x145F JUMP JUMPDEST PUSH2 0x17CB DUP2 PUSH2 0x1489 JUMP JUMPDEST DUP5 ADD SWAP2 POP POP SWAP3 SWAP2 POP POP JUMP JUMPDEST PUSH1 0x0 PUSH1 0xC0 DUP3 ADD SWAP1 POP PUSH2 0x17EB PUSH1 0x0 DUP4 ADD DUP10 PUSH2 0x176E JUMP JUMPDEST PUSH2 0x17F8 PUSH1 0x20 DUP4 ADD DUP9 PUSH2 0x177D JUMP JUMPDEST DUP2 DUP2 SUB PUSH1 0x40 DUP4 ADD MSTORE PUSH2 0x180A DUP2 DUP8 PUSH2 0x179D JUMP JUMPDEST SWAP1 POP DUP2 DUP2 SUB PUSH1 0x60 DUP4 ADD MSTORE PUSH2 0x181E DUP2 DUP7 PUSH2 0x179D JUMP JUMPDEST SWAP1 POP DUP2 DUP2 SUB PUSH1 0x80 DUP4 ADD MSTORE PUSH2 0x1832 DUP2 DUP6 PUSH2 0x179D JUMP JUMPDEST SWAP1 POP DUP2 DUP2 SUB PUSH1 0xA0 DUP4 ADD MSTORE PUSH2 0x1846 DUP2 DUP5 PUSH2 0x179D JUMP JUMPDEST SWAP1 POP SWAP8 SWAP7 POP POP POP POP POP POP POP JUMP JUMPDEST PUSH1 0x0 DUP1 REVERT JUMPDEST PUSH1 0x0 DUP1 REVERT JUMPDEST PUSH32 0x4E487B7100000000000000000000000000000000000000000000000000000000 PUSH1 0x0 MSTORE PUSH1 0x41 PUSH1 0x4 MSTORE PUSH1 0x24 PUSH1 0x0 REVERT JUMPDEST PUSH2 0x1895 DUP3 PUSH2 0x1489 JUMP JUMPDEST DUP2 ADD DUP2 DUP2 LT PUSH8 0xFFFFFFFFFFFFFFFF DUP3 GT OR ISZERO PUSH2 0x18B4 JUMPI PUSH2 0x18B3 PUSH2 0x185D JUMP JUMPDEST JUMPDEST DUP1 PUSH1 0x40 MSTORE POP POP POP JUMP JUMPDEST PUSH1 0x0 PUSH2 0x18C7 PUSH2 0x137C JUMP JUMPDEST SWAP1 POP PUSH2 0x18D3 DUP3 DUP3 PUSH2 0x188C JUMP JUMPDEST SWAP2 SWAP1 POP JUMP JUMPDEST PUSH1 0x0 PUSH8 0xFFFFFFFFFFFFFFFF DUP3 GT ISZERO PUSH2 0x18F3 JUMPI PUSH2 0x18F2 PUSH2 0x185D JUMP JUMPDEST JUMPDEST PUSH2 0x18FC DUP3 PUSH2 0x1489 JUMP JUMPDEST SWAP1 POP PUSH1 0x20 DUP2 ADD SWAP1 POP SWAP2 SWAP1 POP JUMP JUMPDEST DUP3 DUP2 DUP4 CALLDATACOPY PUSH1 0x0 DUP4 DUP4 ADD MSTORE POP POP POP JUMP JUMPDEST PUSH1 0x0 PUSH2 0x192B PUSH2 0x1926 DUP5 PUSH2 0x18D8 JUMP JUMPDEST PUSH2 0x18BD JUMP JUMPDEST SWAP1 POP DUP3 DUP2 MSTORE PUSH1 0x20 DUP2 ADD DUP5 DUP5 DUP5 ADD GT ISZERO PUSH2 0x1947 JUMPI PUSH2 0x1946 PUSH2 0x1858 JUMP JUMPDEST JUMPDEST PUSH2 0x1952 DUP5 DUP3 DUP6 PUSH2 0x1909 JUMP JUMPDEST POP SWAP4 SWAP3 POP POP POP JUMP JUMPDEST PUSH1 0x0 DUP3 PUSH1 0x1F DUP4 ADD SLT PUSH2 0x196F JUMPI PUSH2 0x196E PUSH2 0x1853 JUMP JUMPDEST JUMPDEST DUP2 CALLDATALOAD PUSH2 0x197F DUP5 DUP3 PUSH1 0x20 DUP7 ADD PUSH2 0x1918 JUMP JUMPDEST SWAP2 POP POP SWAP3 SWAP2 POP POP JUMP JUMPDEST PUSH1 0x0 DUP1 PUSH1 0x0 DUP1 PUSH1 0x80 DUP6 DUP8 SUB SLT ISZERO PUSH2 0x19A2 JUMPI PUSH2 0x19A1 PUSH2 0x1386 JUMP JUMPDEST JUMPDEST PUSH1 0x0 DUP6 ADD CALLDATALOAD PUSH8 0xFFFFFFFFFFFFFFFF DUP2 GT ISZERO PUSH2 0x19C0 JUMPI PUSH2 0x19BF PUSH2 0x138B JUMP JUMPDEST JUMPDEST PUSH2 0x19CC DUP8 DUP3 DUP9 ADD PUSH2 0x195A JUMP JUMPDEST SWAP5 POP POP PUSH1 0x20 DUP6 ADD CALLDATALOAD PUSH8 0xFFFFFFFFFFFFFFFF DUP2 GT ISZERO PUSH2 0x19ED JUMPI PUSH2 0x19EC PUSH2 0x138B JUMP JUMPDEST JUMPDEST PUSH2 0x19F9 DUP8 DUP3 DUP9 ADD PUSH2 0x195A JUMP JUMPDEST SWAP4 POP POP PUSH1 0x40 DUP6 ADD CALLDATALOAD PUSH8 0xFFFFFFFFFFFFFFFF DUP2 GT ISZERO PUSH2 0x1A1A JUMPI PUSH2 0x1A19 PUSH2 0x138B JUMP JUMPDEST JUMPDEST PUSH2 0x1A26 DUP8 DUP3 DUP9 ADD PUSH2 0x195A JUMP JUMPDEST SWAP3 POP POP PUSH1 0x60 DUP6 ADD CALLDATALOAD PUSH8 0xFFFFFFFFFFFFFFFF DUP2 GT ISZERO PUSH2 0x1A47 JUMPI PUSH2 0x1A46 PUSH2 0x138B JUMP JUMPDEST JUMPDEST PUSH2 0x1A53 DUP8 DUP3 DUP9 ADD PUSH2 0x195A JUMP JUMPDEST SWAP2 POP POP SWAP3 SWAP6 SWAP2 SWAP5 POP SWAP3 POP JUMP JUMPDEST PUSH1 0x0 DUP1 PUSH1 0x0 DUP1 PUSH1 0x0 PUSH1 0xA0 DUP7 DUP9 SUB SLT ISZERO PUSH2 0x1A7B JUMPI PUSH2 0x1A7A PUSH2 0x1386 JUMP JUMPDEST JUMPDEST PUSH1 0x0 PUSH2 0x1A89 DUP9 DUP3 DUP10 ADD PUSH2 0x13B1 JUMP JUMPDEST SWAP6 POP POP PUSH1 0x20 DUP7 ADD CALLDATALOAD PUSH8 0xFFFFFFFFFFFFFFFF DUP2 GT ISZERO PUSH2 0x1AAA JUMPI PUSH2 0x1AA9 PUSH2 0x138B JUMP JUMPDEST JUMPDEST PUSH2 0x1AB6 DUP9 DUP3 DUP10 ADD PUSH2 0x195A JUMP JUMPDEST SWAP5 POP POP PUSH1 0x40 DUP7 ADD CALLDATALOAD PUSH8 0xFFFFFFFFFFFFFFFF DUP2 GT ISZERO PUSH2 0x1AD7 JUMPI PUSH2 0x1AD6 PUSH2 0x138B JUMP JUMPDEST JUMPDEST PUSH2 0x1AE3 DUP9 DUP3 DUP10 ADD PUSH2 0x195A JUMP JUMPDEST SWAP4 POP POP PUSH1 0x60 DUP7 ADD CALLDATALOAD PUSH8 0xFFFFFFFFFFFFFFFF DUP2 GT ISZERO PUSH2 0x1B04 JUMPI PUSH2 0x1B03 PUSH2 0x138B JUMP JUMPDEST JUMPDEST PUSH2 0x1B10 DUP9 DUP3 DUP10 ADD PUSH2 0x195A JUMP JUMPDEST SWAP3 POP POP PUSH1 0x80 DUP7 ADD CALLDATALOAD PUSH8 0xFFFFFFFFFFFFFFFF DUP2 GT ISZERO PUSH2 0x1B31 JUMPI PUSH2 0x1B30 PUSH2 0x138B JUMP JUMPDEST JUMPDEST PUSH2 0x1B3D DUP9 DUP3 DUP10 ADD PUSH2 0x195A JUMP JUMPDEST SWAP2 POP POP SWAP3 SWAP6 POP SWAP3 SWAP6 SWAP1 SWAP4 POP JUMP JUMPDEST PUSH32 0x4E487B7100000000000000000000000000000000000000000000000000000000 PUSH1 0x0 MSTORE PUSH1 0x22 PUSH1 0x4 MSTORE PUSH1 0x24 PUSH1 0x0 REVERT JUMPDEST PUSH1 0x0 PUSH1 0x2 DUP3 DIV SWAP1 POP PUSH1 0x1 DUP3 AND DUP1 PUSH2 0x1B91 JUMPI PUSH1 0x7F DUP3 AND SWAP2 POP JUMPDEST PUSH1 0x20 DUP3 LT DUP2 SUB PUSH2 0x1BA4 JUMPI PUSH2 0x1BA3 PUSH2 0x1B4A JUMP JUMPDEST JUMPDEST POP SWAP2 SWAP1 POP JUMP JUMPDEST PUSH1 0x0 DUP2 SLOAD SWAP1 POP PUSH2 0x1BB9 DUP2 PUSH2 0x1B79 JUMP JUMPDEST SWAP1 POP SWAP2 SWAP1 POP JUMP JUMPDEST PUSH1 0x0 DUP2 SWAP1 POP DUP2 PUSH1 0x0 MSTORE PUSH1 0x20 PUSH1 0x0 KECCAK256 SWAP1 POP SWAP2 SWAP1 POP JUMP JUMPDEST PUSH1 0x0 PUSH1 0x20 PUSH1 0x1F DUP4 ADD DIV SWAP1 POP SWAP2 SWAP1 POP JUMP JUMPDEST PUSH1 0x0 DUP3 DUP3 SHL SWAP1 POP SWAP3 SWAP2 POP POP JUMP JUMPDEST PUSH1 0x0 PUSH1 0x8 DUP4 MUL PUSH2 0x1C22 PUSH32 0xFFFFFFFFFFFFFFFFFFFFFFFFFFFFFFFFFFFFFFFFFFFFFFFFFFFFFFFFFFFFFFFF DUP3 PUSH2 0x1BE5 JUMP JUMPDEST PUSH2 0x1C2C DUP7 DUP4 PUSH2 0x1BE5 JUMP JUMPDEST SWAP6 POP DUP1 NOT DUP5 AND SWAP4 POP DUP1 DUP7 AND DUP5 OR SWAP3 POP POP POP SWAP4 SWAP3 POP POP POP JUMP JUMPDEST PUSH1 0x0 DUP2 SWAP1 POP SWAP2 SWAP1 POP JUMP JUMPDEST PUSH1 0x0 PUSH2 0x1C69 PUSH2 0x1C64 PUSH2 0x1C5F DUP5 PUSH2 0x1390 JUMP JUMPDEST PUSH2 0x1C44 JUMP JUMPDEST PUSH2 0x1390 JUMP JUMPDEST SWAP1 POP SWAP2 SWAP1 POP JUMP JUMPDEST PUSH1 0x0 DUP2 SWAP1 POP SWAP2 SWAP1 POP JUMP JUMPDEST PUSH2 0x1C83 DUP4 PUSH2 0x1C4E JUMP JUMPDEST PUSH2 0x1C97 PUSH2 0x1C8F DUP3 PUSH2 0x1C70 JUMP JUMPDEST DUP5 DUP5 SLOAD PUSH2 0x1BF2 JUMP JUMPDEST DUP3 SSTORE POP POP POP POP JUMP JUMPDEST PUSH1 0x0 SWAP1 JUMP JUMPDEST PUSH2 0x1CAC PUSH2 0x1C9F JUMP JUMPDEST PUSH2 0x1CB7 DUP2 DUP5 DUP5 PUSH2 0x1C7A JUMP JUMPDEST POP POP POP JUMP JUMPDEST JUMPDEST DUP2 DUP2 LT ISZERO PUSH2 0x1CDB JUMPI PUSH2 0x1CD0 PUSH1 0x0 DUP3 PUSH2 0x1CA4 JUMP JUMPDEST PUSH1 0x1 DUP2 ADD SWAP1 POP PUSH2 0x1CBD JUMP JUMPDEST POP POP JUMP JUMPDEST PUSH1 0x1F DUP3 GT ISZERO PUSH2 0x1D20 JUMPI PUSH2 0x1CF1 DUP2 PUSH2 0x1BC0 JUMP JUMPDEST PUSH2 0x1CFA DUP5 PUSH2 0x1BD5 JUMP JUMPDEST DUP2 ADD PUSH1 0x20 DUP6 LT ISZERO PUSH2 0x1D09 JUMPI DUP2 SWAP1 POP JUMPDEST PUSH2 0x1D1D PUSH2 0x1D15 DUP6 PUSH2 0x1BD5 JUMP JUMPDEST DUP4 ADD DUP3 PUSH2 0x1CBC JUMP JUMPDEST POP POP JUMPDEST POP POP POP JUMP JUMPDEST PUSH1 0x0 DUP3 DUP3 SHR SWAP1 POP SWAP3 SWAP2 POP POP JUMP JUMPDEST PUSH1 0x0 PUSH2 0x1D43 PUSH1 0x0 NOT DUP5 PUSH1 0x8 MUL PUSH2 0x1D25 JUMP JUMPDEST NOT DUP1 DUP4 AND SWAP2 POP POP SWAP3 SWAP2 POP POP JUMP JUMPDEST PUSH1 0x0 PUSH2 0x1D5C DUP4 DUP4 PUSH2 0x1D32 JUMP JUMPDEST SWAP2 POP DUP3 PUSH1 0x2 MUL DUP3 OR SWAP1 POP SWAP3 SWAP2 POP POP JUMP JUMPDEST DUP2 DUP2 SUB PUSH2 0x1D7A JUMPI POP POP PUSH2 0x1E52 JUMP JUMPDEST PUSH2 0x1D83 DUP3 PUSH2 0x1BAA JUMP JUMPDEST PUSH8 0xFFFFFFFFFFFFFFFF DUP2 GT ISZERO PUSH2 0x1D9C JUMPI PUSH2 0x1D9B PUSH2 0x185D JUMP JUMPDEST JUMPDEST PUSH2 0x1DA6 DUP3 SLOAD PUSH2 0x1B79 JUMP JUMPDEST PUSH2 0x1DB1 DUP3 DUP3 DUP6 PUSH2 0x1CDF JUMP JUMPDEST PUSH1 0x0 PUSH1 0x1F DUP4 GT PUSH1 0x1 DUP2 EQ PUSH2 0x1DE0 JUMPI PUSH1 0x0 DUP5 ISZERO PUSH2 0x1DCE JUMPI DUP3 DUP8 ADD SLOAD SWAP1 POP JUMPDEST PUSH2 0x1DD8 DUP6 DUP3 PUSH2 0x1D50 JUMP JUMPDEST DUP7 SSTORE POP PUSH2 0x1E4B JUMP JUMPDEST PUSH1 0x1F NOT DUP5 AND PUSH2 0x1DEE DUP8 PUSH2 0x1BC0 JUMP JUMPDEST SWAP7 POP PUSH2 0x1DF9 DUP7 PUSH2 0x1BC0 JUMP JUMPDEST PUSH1 0x0 JUMPDEST DUP3 DUP2 LT ISZERO PUSH2 0x1E21 JUMPI DUP5 DUP10 ADD SLOAD DUP3 SSTORE PUSH1 0x1 DUP3 ADD SWAP2 POP PUSH1 0x1 DUP6 ADD SWAP5 POP PUSH1 0x20 DUP2 ADD SWAP1 POP PUSH2 0x1DFC JUMP JUMPDEST DUP7 DUP4 LT ISZERO PUSH2 0x1E3E JUMPI DUP5 DUP10 ADD SLOAD PUSH2 0x1E3A PUSH1 0x1F DUP10 AND DUP3 PUSH2 0x1D32 JUMP JUMPDEST DUP4 SSTORE POP JUMPDEST PUSH1 0x1 PUSH1 0x2 DUP9 MUL ADD DUP9 SSTORE POP POP POP JUMPDEST POP POP POP POP POP POP JUMPDEST JUMP JUMPDEST PUSH32 0x4E487B7100000000000000000000000000000000000000000000000000000000 PUSH1 0x0 MSTORE PUSH1 0x11 PUSH1 0x4 MSTORE PUSH1 0x24 PUSH1 0x0 REVERT JUMPDEST PUSH1 0x0 PUSH2 0x1E8E DUP3 PUSH2 0x1390 JUMP JUMPDEST SWAP2 POP PUSH2 0x1E99 DUP4 PUSH2 0x1390 JUMP JUMPDEST SWAP3 POP DUP3 DUP3 SUB SWAP1 POP DUP2 DUP2 GT ISZERO PUSH2 0x1EB1 JUMPI PUSH2 0x1EB0 PUSH2 0x1E54 JUMP JUMPDEST JUMPDEST SWAP3 SWAP2 POP POP JUMP JUMPDEST PUSH32 0x4E487B7100000000000000000000000000000000000000000000000000000000 PUSH1 0x0 MSTORE PUSH1 0x32 PUSH1 0x4 MSTORE PUSH1 0x24 PUSH1 0x0 REVERT JUMPDEST PUSH1 0x0 PUSH2 0x1EF1 DUP3 PUSH2 0x1390 JUMP JUMPDEST SWAP2 POP PUSH1 0x0 DUP3 SUB PUSH2 0x1F04 JUMPI PUSH2 0x1F03 PUSH2 0x1E54 JUMP JUMPDEST JUMPDEST PUSH1 0x1 DUP3 SUB SWAP1 POP SWAP2 SWAP1 POP JUMP JUMPDEST PUSH1 0x0 PUSH2 0x1F1A DUP3 PUSH2 0x1390 JUMP JUMPDEST SWAP2 POP PUSH2 0x1F25 DUP4 PUSH2 0x1390 JUMP JUMPDEST SWAP3 POP DUP3 DUP3 ADD SWAP1 POP DUP1 DUP3 GT ISZERO PUSH2 0x1F3D JUMPI PUSH2 0x1F3C PUSH2 0x1E54 JUMP JUMPDEST JUMPDEST SWAP3 SWAP2 POP POP JUMP JUMPDEST PUSH1 0x0 PUSH2 0x1F4E DUP3 PUSH2 0x1390 JUMP JUMPDEST SWAP2 POP PUSH32 0xFFFFFFFFFFFFFFFFFFFFFFFFFFFFFFFFFFFFFFFFFFFFFFFFFFFFFFFFFFFFFFFF DUP3 SUB PUSH2 0x1F80 JUMPI PUSH2 0x1F7F PUSH2 0x1E54 JUMP JUMPDEST JUMPDEST PUSH1 0x1 DUP3 ADD SWAP1 POP SWAP2 SWAP1 POP JUMP JUMPDEST PUSH32 0x4E487B7100000000000000000000000000000000000000000000000000000000 PUSH1 0x0 MSTORE PUSH1 0x31 PUSH1 0x4 MSTORE PUSH1 0x24 PUSH1 0x0 REVERT JUMPDEST PUSH2 0x1FC3 DUP3 PUSH2 0x1443 JUMP JUMPDEST PUSH8 0xFFFFFFFFFFFFFFFF DUP2 GT ISZERO PUSH2 0x1FDC JUMPI PUSH2 0x1FDB PUSH2 0x185D JUMP JUMPDEST JUMPDEST PUSH2 0x1FE6 DUP3 SLOAD PUSH2 0x1B79 JUMP JUMPDEST PUSH2 0x1FF1 DUP3 DUP3 DUP6 PUSH2 0x1CDF JUMP JUMPDEST PUSH1 0x0 PUSH1 0x20 SWAP1 POP PUSH1 0x1F DUP4 GT PUSH1 0x1 DUP2 EQ PUSH2 0x2024 JUMPI PUSH1 0x0 DUP5 ISZERO PUSH2 0x2012 JUMPI DUP3 DUP8 ADD MLOAD SWAP1 POP JUMPDEST PUSH2 0x201C DUP6 DUP3 PUSH2 0x1D50 JUMP JUMPDEST DUP7 SSTORE POP PUSH2 0x2084 JUMP JUMPDEST PUSH1 0x1F NOT DUP5 AND PUSH2 0x2032 DUP7 PUSH2 0x1BC0 JUMP JUMPDEST PUSH1 0x0 JUMPDEST DUP3 DUP2 LT ISZERO PUSH2 0x205A JUMPI DUP5 DUP10 ADD MLOAD DUP3 SSTORE PUSH1 0x1 DUP3 ADD SWAP2 POP PUSH1 0x20 DUP6 ADD SWAP5 POP PUSH1 0x20 DUP2 ADD SWAP1 POP PUSH2 0x2035 JUMP JUMPDEST DUP7 DUP4 LT ISZERO PUSH2 0x2077 JUMPI DUP5 DUP10 ADD MLOAD PUSH2 0x2073 PUSH1 0x1F DUP10 AND DUP3 PUSH2 0x1D32 JUMP JUMPDEST DUP4 SSTORE POP JUMPDEST PUSH1 0x1 PUSH1 0x2 DUP9 MUL ADD DUP9 SSTORE POP POP POP JUMPDEST POP POP POP POP POP POP JUMP INVALID LOG2 PUSH5 0x6970667358 0x22 SLT KECCAK256 0xD5 MSTORE8 0xD1 DUP3 BASEFEE SMOD CALLER 0x4B EXP 0x5E SGT JUMPDEST LOG0 DUP8 PUSH12 0x44CB613EE5284EFAB581F3D8 0xDE SWAP9 SWAP8 0xEF SUB PUSH5 0x736F6C6343 STOP ADDMOD GT STOP CALLER "},"methodIdentifiers":{"addComplaint()":"0616cf4f","complaints(uint256)":"7e69e912","getSingleComplaint(uint256)":"11ca4d23","lastComplaint()":"624a9d0b","removeComplaint(uint256)":"1335430b","returnComplaints()":"6db58c85","setComplainant(address)":"5e65f604","setComplainantDetails(string,string,string,string)":"95278dd9","setComplaintNumber(uint256)":"8c33c781","updateComplaint(uint256,string,string,string,string)":"e949c634"}}}}}