{
  "_format": "hh-sol-artifact-1",
  "contractName": "Complaints",
  "sourceName": "contracts/complaints.sol",
  "abi": [
    {
      "inputs": [],
      "name": "addComplaint",
      "outputs": [],
      "stateMutability": "nonpayable",
      "type": "function"
    },
    {
      "inputs": [
        {
          "internalType": "uint256",
          "name": "",
          "type": "uint256"
        }
      ],
      "name": "complaints",
      "outputs": [
        {
          "internalType": "uint256",
          "name": "complaintNumber",
          "type": "uint256"
        },
        {
          "internalType": "address",
          "name": "complainant",
          "type": "address"
        },
        {
          "internalType": "string",
          "name": "complainantName",
          "type": "string"
        },
        {
          "internalType": "string",
          "name": "complainantAddress",
          "type": "string"
        },
        {
          "internalType": "string",
          "name": "incident",
          "type": "string"
        },
        {
          "internalType": "string",
          "name": "timeOfIncident",
          "type": "string"
        }
      ],
      "stateMutability": "view",
      "type": "function"
    },
    {
      "inputs": [
        {
          "internalType": "uint256",
          "name": "index",
          "type": "uint256"
        }
      ],
      "name": "getSingleComplaint",
      "outputs": [
        {
          "components": [
            {
              "internalType": "uint256",
              "name": "complaintNumber",
              "type": "uint256"
            },
            {
              "internalType": "address",
              "name": "complainant",
              "type": "address"
            },
            {
              "internalType": "string",
              "name": "complainantName",
              "type": "string"
            },
            {
              "internalType": "string",
              "name": "complainantAddress",
              "type": "string"
            },
            {
              "internalType": "string",
              "name": "incident",
              "type": "string"
            },
            {
              "internalType": "string",
              "name": "timeOfIncident",
              "type": "string"
            }
          ],
          "internalType": "struct Complaint",
          "name": "",
          "type": "tuple"
        }
      ],
      "stateMutability": "view",
      "type": "function"
    },
    {
      "inputs": [],
      "name": "lastComplaint",
      "outputs": [
        {
          "components": [
            {
              "internalType": "uint256",
              "name": "complaintNumber",
              "type": "uint256"
            },
            {
              "internalType": "address",
              "name": "complainant",
              "type": "address"
            },
            {
              "internalType": "string",
              "name": "complainantName",
              "type": "string"
            },
            {
              "internalType": "string",
              "name": "complainantAddress",
              "type": "string"
            },
            {
              "internalType": "string",
              "name": "incident",
              "type": "string"
            },
            {
              "internalType": "string",
              "name": "timeOfIncident",
              "type": "string"
            }
          ],
          "internalType": "struct Complaint",
          "name": "",
          "type": "tuple"
        }
      ],
      "stateMutability": "view",
      "type": "function"
    },
    {
      "inputs": [
        {
          "internalType": "uint256",
          "name": "index",
          "type": "uint256"
        }
      ],
      "name": "removeComplaint",
      "outputs": [],
      "stateMutability": "nonpayable",
      "type": "function"
    },
    {
      "inputs": [],
      "name": "returnComplaints",
      "outputs": [
        {
          "components": [
            {
              "internalType": "uint256",
              "name": "complaintNumber",
              "type": "uint256"
            },
            {
              "internalType": "address",
              "name": "complainant",
              "type": "address"
            },
            {
              "internalType": "string",
              "name": "complainantName",
              "type": "string"
            },
            {
              "internalType": "string",
              "name": "complainantAddress",
              "type": "string"
            },
            {
              "internalType": "string",
              "name": "incident",
              "type": "string"
            },
            {
              "internalType": "string",
              "name": "timeOfIncident",
              "type": "string"
            }
          ],
          "internalType": "struct Complaint[]",
          "name": "",
          "type": "tuple[]"
        }
      ],
      "stateMutability": "view",
      "type": "function"
    },
    {
      "inputs": [
        {
          "internalType": "address",
          "name": "_complainant",
          "type": "address"
        }
      ],
      "name": "setComplainant",
      "outputs": [],
      "stateMutability": "nonpayable",
      "type": "function"
    },
    {
      "inputs": [
        {
          "internalType": "string",
          "name": "_name",
          "type": "string"
        },
        {
          "internalType": "string",
          "name": "_address",
          "type": "string"
        },
        {
          "internalType": "string",
          "name": "_incident",
          "type": "string"
        },
        {
          "internalType": "string",
          "name": "_time",
          "type": "string"
        }
      ],
      "name": "setComplainantDetails",
      "outputs": [],
      "stateMutability": "nonpayable",
      "type": "function"
    },
    {
      "inputs": [
        {
          "internalType": "uint256",
          "name": "_number",
          "type": "uint256"
        }
      ],
      "name": "setComplaintNumber",
      "outputs": [],
      "stateMutability": "nonpayable",
      "type": "function"
    },
    {
      "inputs": [
        {
          "internalType": "uint256",
          "name": "index",
          "type": "uint256"
        },
        {
          "internalType": "string",
          "name": "_name",
          "type": "string"
        },
        {
          "internalType": "string",
          "name": "_address",
          "type": "string"
        },
        {
          "internalType": "string",
          "name": "_incident",
          "type": "string"
        },
        {
          "internalType": "string",
          "name": "_time",
          "type": "string"
        }
      ],
      "name": "updateComplaint",
      "outputs": [],
      "stateMutability": "nonpayable",
      "type": "function"
    }
  ],
  "bytecode": "0x60806040526001805534801561001457600080fd5b506120c2806100246000396000f3fe608060405234801561001057600080fd5b506004361061009e5760003560e01c80636db58c85116100665780636db58c85146101335780637e69e912146101515780638c33c7811461018657806395278dd9146101a2578063e949c634146101be5761009e565b80630616cf4f146100a357806311ca4d23146100ad5780631335430b146100dd5780635e65f604146100f9578063624a9d0b14610115575b600080fd5b6100ab6101da565b005b6100c760048036038101906100c291906113c6565b6102d0565b6040516100d49190611571565b60405180910390f35b6100f760048036038101906100f291906113c6565b6105c0565b005b610113600480360381019061010e91906115bf565b610866565b005b61011d6108ad565b60405161012a9190611571565b60405180910390f35b61013b610b6f565b604051610148919061174c565b60405180910390f35b61016b600480360381019061016691906113c6565b610e76565b60405161017d969594939291906117d6565b60405180910390f35b6101a0600480360381019061019b91906113c6565b611102565b005b6101bc60048036038101906101b79190611988565b61110f565b005b6101d860048036038101906101d39190611a5f565b6111d0565b005b600060029080600181540180825580915050600190039060005260206000209060060201600090919091909150600082015481600001556001820160009054906101000a900473ffffffffffffffffffffffffffffffffffffffff168160010160006101000a81548173ffffffffffffffffffffffffffffffffffffffff021916908373ffffffffffffffffffffffffffffffffffffffff1602179055506002820181600201908161028c9190611d6c565b50600382018160030190816102a19190611d6c565b50600482018160040190816102b69190611d6c565b50600582018160050190816102cb9190611d6c565b505050565b6102d86112d3565b60006001836102e79190611e83565b815481106102f8576102f7611eb7565b5b90600052602060002090600602016040518060c0016040529081600082015481526020016001820160009054906101000a900473ffffffffffffffffffffffffffffffffffffffff1673ffffffffffffffffffffffffffffffffffffffff1673ffffffffffffffffffffffffffffffffffffffff16815260200160028201805461038190611b79565b80601f01602080910402602001604051908101604052809291908181526020018280546103ad90611b79565b80156103fa5780601f106103cf576101008083540402835291602001916103fa565b820191906000526020600020905b8154815290600101906020018083116103dd57829003601f168201915b5050505050815260200160038201805461041390611b79565b80601f016020809104026020016040519081016040528092919081815260200182805461043f90611b79565b801561048c5780601f106104615761010080835404028352916020019161048c565b820191906000526020600020905b81548152906001019060200180831161046f57829003601f168201915b505050505081526020016004820180546104a590611b79565b80601f01602080910402602001604051908101604052809291908181526020018280546104d190611b79565b801561051e5780601f106104f35761010080835404028352916020019161051e565b820191906000526020600020905b81548152906001019060200180831161050157829003601f168201915b5050505050815260200160058201805461053790611b79565b80601f016020809104026020016040519081016040528092919081815260200182805461056390611b79565b80156105b05780601f10610585576101008083540402835291602001916105b0565b820191906000526020600020905b81548152906001019060200180831161059357829003601f168201915b5050505050815250509050919050565b600060016000805490506105d49190611e83565b90505b6001826105e49190611e83565b8111156106595760006001826105fa9190611e83565b8154811061060b5761060a611eb7565b5b9060005260206000209060060201600001546000828154811061063157610630611eb7565b5b906000526020600020906006020160000181905550808061065190611ee6565b9150506105d7565b5060006001826106699190611e83565b90505b600160008054905061067e9190611e83565b8110156107b05760006001826106949190611f0f565b815481106106a5576106a4611eb7565b5b9060005260206000209060060201600082815481106106c7576106c6611eb7565b5b9060005260206000209060060201600082015481600001556001820160009054906101000a900473ffffffffffffffffffffffffffffffffffffffff168160010160006101000a81548173ffffffffffffffffffffffffffffffffffffffff021916908373ffffffffffffffffffffffffffffffffffffffff1602179055506002820181600201908161075a9190611d6c565b506003820181600301908161076f9190611d6c565b50600482018160040190816107849190611d6c565b50600582018160050190816107999190611d6c565b5090505080806107a890611f43565b91505061066c565b50600160008154809291906107c490611ee6565b919050555060008054806107db576107da611f8b565b5b60019003818190600052602060002090600602016000808201600090556001820160006101000a81549073ffffffffffffffffffffffffffffffffffffffff021916905560028201600061082f919061131f565b60038201600061083f919061131f565b60048201600061084f919061131f565b60058201600061085f919061131f565b5050905550565b80600260010160006101000a81548173ffffffffffffffffffffffffffffffffffffffff021916908373ffffffffffffffffffffffffffffffffffffffff16021790555050565b6108b56112d3565b60026040518060c0016040529081600082015481526020016001820160009054906101000a900473ffffffffffffffffffffffffffffffffffffffff1673ffffffffffffffffffffffffffffffffffffffff1673ffffffffffffffffffffffffffffffffffffffff16815260200160028201805461093290611b79565b80601f016020809104026020016040519081016040528092919081815260200182805461095e90611b79565b80156109ab5780601f10610980576101008083540402835291602001916109ab565b820191906000526020600020905b81548152906001019060200180831161098e57829003601f168201915b505050505081526020016003820180546109c490611b79565b80601f01602080910402602001604051908101604052809291908181526020018280546109f090611b79565b8015610a3d5780601f10610a1257610100808354040283529160200191610a3d565b820191906000526020600020905b815481529060010190602001808311610a2057829003601f168201915b50505050508152602001600482018054610a5690611b79565b80601f0160208091040260200160405190810160405280929190818152602001828054610a8290611b79565b8015610acf5780601f10610aa457610100808354040283529160200191610acf565b820191906000526020600020905b815481529060010190602001808311610ab257829003601f168201915b50505050508152602001600582018054610ae890611b79565b80601f0160208091040260200160405190810160405280929190818152602001828054610b1490611b79565b8015610b615780601f10610b3657610100808354040283529160200191610b61565b820191906000526020600020905b815481529060010190602001808311610b4457829003601f168201915b505050505081525050905090565b60606000805480602002602001604051908101604052809291908181526020016000905b82821015610e6d57838290600052602060002090600602016040518060c0016040529081600082015481526020016001820160009054906101000a900473ffffffffffffffffffffffffffffffffffffffff1673ffffffffffffffffffffffffffffffffffffffff1673ffffffffffffffffffffffffffffffffffffffff168152602001600282018054610c2690611b79565b80601f0160208091040260200160405190810160405280929190818152602001828054610c5290611b79565b8015610c9f5780601f10610c7457610100808354040283529160200191610c9f565b820191906000526020600020905b815481529060010190602001808311610c8257829003601f168201915b50505050508152602001600382018054610cb890611b79565b80601f0160208091040260200160405190810160405280929190818152602001828054610ce490611b79565b8015610d315780601f10610d0657610100808354040283529160200191610d31565b820191906000526020600020905b815481529060010190602001808311610d1457829003601f168201915b50505050508152602001600482018054610d4a90611b79565b80601f0160208091040260200160405190810160405280929190818152602001828054610d7690611b79565b8015610dc35780601f10610d9857610100808354040283529160200191610dc3565b820191906000526020600020905b815481529060010190602001808311610da657829003601f168201915b50505050508152602001600582018054610ddc90611b79565b80601f0160208091040260200160405190810160405280929190818152602001828054610e0890611b79565b8015610e555780601f10610e2a57610100808354040283529160200191610e55565b820191906000526020600020905b815481529060010190602001808311610e3857829003601f168201915b50505050508152505081526020019060010190610b93565b50505050905090565b60008181548110610e8657600080fd5b90600052602060002090600602016000915090508060000154908060010160009054906101000a900473ffffffffffffffffffffffffffffffffffffffff1690806002018054610ed590611b79565b80601f0160208091040260200160405190810160405280929190818152602001828054610f0190611b79565b8015610f4e5780601f10610f2357610100808354040283529160200191610f4e565b820191906000526020600020905b815481529060010190602001808311610f3157829003601f168201915b505050505090806003018054610f6390611b79565b80601f0160208091040260200160405190810160405280929190818152602001828054610f8f90611b79565b8015610fdc5780601f10610fb157610100808354040283529160200191610fdc565b820191906000526020600020905b815481529060010190602001808311610fbf57829003601f168201915b505050505090806004018054610ff190611b79565b80601f016020809104026020016040519081016040528092919081815260200182805461101d90611b79565b801561106a5780601f1061103f5761010080835404028352916020019161106a565b820191906000526020600020905b81548152906001019060200180831161104d57829003601f168201915b50505050509080600501805461107f90611b79565b80601f01602080910402602001604051908101604052809291908181526020018280546110ab90611b79565b80156110f85780601f106110cd576101008083540402835291602001916110f8565b820191906000526020600020905b8154815290600101906020018083116110db57829003601f168201915b5050505050905086565b8060026000018190555050565b6001546002600001819055506001600081548092919061112e90611f43565b919050555033600260010160006101000a81548173ffffffffffffffffffffffffffffffffffffffff021916908373ffffffffffffffffffffffffffffffffffffffff160217905550836002800190816111889190611fba565b50826002600301908161119b9190611fba565b5081600260040190816111ae9190611fba565b5080600260050190816111c19190611fba565b506111ca6101da565b50505050565b8360006001876111e09190611e83565b815481106111f1576111f0611eb7565b5b9060005260206000209060060201600201908161120e9190611fba565b5082600060018761121f9190611e83565b815481106112305761122f611eb7565b5b9060005260206000209060060201600301908161124d9190611fba565b5081600060018761125e9190611e83565b8154811061126f5761126e611eb7565b5b9060005260206000209060060201600401908161128c9190611fba565b5080600060018761129d9190611e83565b815481106112ae576112ad611eb7565b5b906000526020600020906006020160050190816112cb9190611fba565b505050505050565b6040518060c0016040528060008152602001600073ffffffffffffffffffffffffffffffffffffffff168152602001606081526020016060815260200160608152602001606081525090565b50805461132b90611b79565b6000825580601f1061133d575061135c565b601f01602090049060005260206000209081019061135b919061135f565b5b50565b5b80821115611378576000816000905550600101611360565b5090565b6000604051905090565b600080fd5b600080fd5b6000819050919050565b6113a381611390565b81146113ae57600080fd5b50565b6000813590506113c08161139a565b92915050565b6000602082840312156113dc576113db611386565b5b60006113ea848285016113b1565b91505092915050565b6113fc81611390565b82525050565b600073ffffffffffffffffffffffffffffffffffffffff82169050919050565b600061142d82611402565b9050919050565b61143d81611422565b82525050565b600081519050919050565b600082825260208201905092915050565b60005b8381101561147d578082015181840152602081019050611462565b60008484015250505050565b6000601f19601f8301169050919050565b60006114a582611443565b6114af818561144e565b93506114bf81856020860161145f565b6114c881611489565b840191505092915050565b600060c0830160008301516114eb60008601826113f3565b5060208301516114fe6020860182611434565b5060408301518482036040860152611516828261149a565b91505060608301518482036060860152611530828261149a565b9150506080830151848203608086015261154a828261149a565b91505060a083015184820360a0860152611564828261149a565b9150508091505092915050565b6000602082019050818103600083015261158b81846114d3565b905092915050565b61159c81611422565b81146115a757600080fd5b50565b6000813590506115b981611593565b92915050565b6000602082840312156115d5576115d4611386565b5b60006115e3848285016115aa565b91505092915050565b600081519050919050565b600082825260208201905092915050565b6000819050602082019050919050565b600060c08301600083015161163060008601826113f3565b5060208301516116436020860182611434565b506040830151848203604086015261165b828261149a565b91505060608301518482036060860152611675828261149a565b9150506080830151848203608086015261168f828261149a565b91505060a083015184820360a08601526116a9828261149a565b9150508091505092915050565b60006116c28383611618565b905092915050565b6000602082019050919050565b60006116e2826115ec565b6116ec81856115f7565b9350836020820285016116fe85611608565b8060005b8581101561173a578484038952815161171b85826116b6565b9450611726836116ca565b925060208a01995050600181019050611702565b50829750879550505050505092915050565b6000602082019050818103600083015261176681846116d7565b905092915050565b61177781611390565b82525050565b61178681611422565b82525050565b600082825260208201905092915050565b60006117a882611443565b6117b2818561178c565b93506117c281856020860161145f565b6117cb81611489565b840191505092915050565b600060c0820190506117eb600083018961176e565b6117f8602083018861177d565b818103604083015261180a818761179d565b9050818103606083015261181e818661179d565b90508181036080830152611832818561179d565b905081810360a0830152611846818461179d565b9050979650505050505050565b600080fd5b600080fd5b7f4e487b7100000000000000000000000000000000000000000000000000000000600052604160045260246000fd5b61189582611489565b810181811067ffffffffffffffff821117156118b4576118b361185d565b5b80604052505050565b60006118c761137c565b90506118d3828261188c565b919050565b600067ffffffffffffffff8211156118f3576118f261185d565b5b6118fc82611489565b9050602081019050919050565b82818337600083830152505050565b600061192b611926846118d8565b6118bd565b90508281526020810184848401111561194757611946611858565b5b611952848285611909565b509392505050565b600082601f83011261196f5761196e611853565b5b813561197f848260208601611918565b91505092915050565b600080600080608085870312156119a2576119a1611386565b5b600085013567ffffffffffffffff8111156119c0576119bf61138b565b5b6119cc8782880161195a565b945050602085013567ffffffffffffffff8111156119ed576119ec61138b565b5b6119f98782880161195a565b935050604085013567ffffffffffffffff811115611a1a57611a1961138b565b5b611a268782880161195a565b925050606085013567ffffffffffffffff811115611a4757611a4661138b565b5b611a538782880161195a565b91505092959194509250565b600080600080600060a08688031215611a7b57611a7a611386565b5b6000611a89888289016113b1565b955050602086013567ffffffffffffffff811115611aaa57611aa961138b565b5b611ab68882890161195a565b945050604086013567ffffffffffffffff811115611ad757611ad661138b565b5b611ae38882890161195a565b935050606086013567ffffffffffffffff811115611b0457611b0361138b565b5b611b108882890161195a565b925050608086013567ffffffffffffffff811115611b3157611b3061138b565b5b611b3d8882890161195a565b9150509295509295909350565b7f4e487b7100000000000000000000000000000000000000000000000000000000600052602260045260246000fd5b60006002820490506001821680611b9157607f821691505b602082108103611ba457611ba3611b4a565b5b50919050565b600081549050611bb981611b79565b9050919050565b60008190508160005260206000209050919050565b60006020601f8301049050919050565b600082821b905092915050565b600060088302611c227fffffffffffffffffffffffffffffffffffffffffffffffffffffffffffffffff82611be5565b611c2c8683611be5565b95508019841693508086168417925050509392505050565b6000819050919050565b6000611c69611c64611c5f84611390565b611c44565b611390565b9050919050565b6000819050919050565b611c8383611c4e565b611c97611c8f82611c70565b848454611bf2565b825550505050565b600090565b611cac611c9f565b611cb7818484611c7a565b505050565b5b81811015611cdb57611cd0600082611ca4565b600181019050611cbd565b5050565b601f821115611d2057611cf181611bc0565b611cfa84611bd5565b81016020851015611d09578190505b611d1d611d1585611bd5565b830182611cbc565b50505b505050565b600082821c905092915050565b6000611d4360001984600802611d25565b1980831691505092915050565b6000611d5c8383611d32565b9150826002028217905092915050565b818103611d7a575050611e52565b611d8382611baa565b67ffffffffffffffff811115611d9c57611d9b61185d565b5b611da68254611b79565b611db1828285611cdf565b6000601f831160018114611de05760008415611dce578287015490505b611dd88582611d50565b865550611e4b565b601f198416611dee87611bc0565b9650611df986611bc0565b60005b82811015611e2157848901548255600182019150600185019450602081019050611dfc565b86831015611e3e5784890154611e3a601f891682611d32565b8355505b6001600288020188555050505b5050505050505b565b7f4e487b7100000000000000000000000000000000000000000000000000000000600052601160045260246000fd5b6000611e8e82611390565b9150611e9983611390565b9250828203905081811115611eb157611eb0611e54565b5b92915050565b7f4e487b7100000000000000000000000000000000000000000000000000000000600052603260045260246000fd5b6000611ef182611390565b915060008203611f0457611f03611e54565b5b600182039050919050565b6000611f1a82611390565b9150611f2583611390565b9250828201905080821115611f3d57611f3c611e54565b5b92915050565b6000611f4e82611390565b91507fffffffffffffffffffffffffffffffffffffffffffffffffffffffffffffffff8203611f8057611f7f611e54565b5b600182019050919050565b7f4e487b7100000000000000000000000000000000000000000000000000000000600052603160045260246000fd5b611fc382611443565b67ffffffffffffffff811115611fdc57611fdb61185d565b5b611fe68254611b79565b611ff1828285611cdf565b600060209050601f8311600181146120245760008415612012578287015190505b61201c8582611d50565b865550612084565b601f19841661203286611bc0565b60005b8281101561205a57848901518255600182019150602085019450602081019050612035565b868310156120775784890151612073601f891682611d32565b8355505b6001600288020188555050505b50505050505056fea2646970667358221220d553d1824807334b0a5e135ba0876b44cb613ee5284efab581f3d8de9897ef0364736f6c63430008110033",
  "linkReferences": {},
  "deployedLinkReferences": {}
}